{
	"FundMe.sol": {
		"FundMe": {
			"abi": [
				{
					"inputs": [],
					"stateMutability": "nonpayable",
					"type": "constructor"
				},
				{
					"inputs": [],
					"name": "CallFailure",
					"type": "error"
				},
				{
					"inputs": [],
					"name": "MinEthError",
					"type": "error"
				},
				{
					"inputs": [],
					"name": "NotOwner",
					"type": "error"
				},
				{
					"stateMutability": "payable",
					"type": "fallback"
				},
				{
					"inputs": [],
					"name": "MIN_USD",
					"outputs": [
						{
							"internalType": "uint256",
							"name": "",
							"type": "uint256"
						}
					],
					"stateMutability": "view",
					"type": "function"
				},
				{
					"inputs": [
						{
							"internalType": "address",
							"name": "funder",
							"type": "address"
						}
					],
					"name": "addressToAmountFunded",
					"outputs": [
						{
							"internalType": "uint256",
							"name": "amountFunded",
							"type": "uint256"
						}
					],
					"stateMutability": "view",
					"type": "function"
				},
				{
					"inputs": [],
					"name": "fund",
					"outputs": [],
					"stateMutability": "payable",
					"type": "function"
				},
				{
					"inputs": [
						{
							"internalType": "uint256",
							"name": "",
							"type": "uint256"
						}
					],
					"name": "funders",
					"outputs": [
						{
							"internalType": "address",
							"name": "",
							"type": "address"
						}
					],
					"stateMutability": "view",
					"type": "function"
				},
				{
					"inputs": [],
					"name": "i_owner",
					"outputs": [
						{
							"internalType": "address",
							"name": "",
							"type": "address"
						}
					],
					"stateMutability": "view",
					"type": "function"
				},
				{
					"inputs": [],
					"name": "version",
					"outputs": [
						{
							"internalType": "uint256",
							"name": "",
							"type": "uint256"
						}
					],
					"stateMutability": "view",
					"type": "function"
				},
				{
					"inputs": [],
					"name": "withdraw",
					"outputs": [],
					"stateMutability": "nonpayable",
					"type": "function"
				},
				{
					"stateMutability": "payable",
					"type": "receive"
				}
			],
			"devdoc": {
				"kind": "dev",
				"methods": {},
				"version": 1
			},
			"evm": {
				"assembly": "    /* \"FundMe.sol\":174:1551  contract FundMe {... */\n  mstore(0x40, 0xa0)\n    /* \"FundMe.sol\":457:508  constructor() {... */\n  callvalue\n  dup1\n  iszero\n  tag_1\n  jumpi\n  0x00\n  dup1\n  revert\ntag_1:\n  pop\n    /* \"FundMe.sol\":491:501  msg.sender */\n  caller\n    /* \"FundMe.sol\":481:501  i_owner = msg.sender */\n  0xffffffffffffffffffffffffffffffffffffffff\n  and\n  0x80\n  dup2\n  0xffffffffffffffffffffffffffffffffffffffff\n  and\n  dup2\n  mstore\n  pop\n  pop\n    /* \"FundMe.sol\":174:1551  contract FundMe {... */\n  mload(0x80)\n  codecopy(0x00, dataOffset(sub_0), dataSize(sub_0))\n  0x00\n  assignImmutable(\"0x57014f1e5f1d53e43fa40624186159531d6372d1ab8f40ec7882845ca66de31d\")\n  return(0x00, dataSize(sub_0))\nstop\n\nsub_0: assembly {\n        /* \"FundMe.sol\":174:1551  contract FundMe {... */\n      mstore(0x40, 0x80)\n      jumpi(tag_1, lt(calldatasize, 0x04))\n      shr(0xe0, calldataload(0x00))\n      dup1\n      0x54fd4d50\n      gt\n      tag_10\n      jumpi\n      dup1\n      0x54fd4d50\n      eq\n      tag_6\n      jumpi\n      dup1\n      0xb60d4288\n      eq\n      tag_7\n      jumpi\n      dup1\n      0xdba6335f\n      eq\n      tag_8\n      jumpi\n      dup1\n      0xdc0d3dff\n      eq\n      tag_9\n      jumpi\n      jump(tag_2)\n    tag_10:\n      dup1\n      0x213dbea2\n      eq\n      tag_3\n      jumpi\n      dup1\n      0x3ccfd60b\n      eq\n      tag_4\n      jumpi\n      dup1\n      0x3e47d6f3\n      eq\n      tag_5\n      jumpi\n      jump(tag_2)\n    tag_1:\n      jumpi(tag_2, calldatasize)\n        /* \"FundMe.sol\":1494:1500  fund() */\n      tag_13\n        /* \"FundMe.sol\":1494:1498  fund */\n      tag_14\n        /* \"FundMe.sol\":1494:1500  fund() */\n      jump\t// in\n    tag_13:\n        /* \"FundMe.sol\":174:1551  contract FundMe {... */\n      stop\n    tag_2:\n        /* \"FundMe.sol\":1539:1545  fund() */\n      tag_17\n        /* \"FundMe.sol\":1539:1543  fund */\n      tag_14\n        /* \"FundMe.sol\":1539:1545  fund() */\n      jump\t// in\n    tag_17:\n        /* \"FundMe.sol\":174:1551  contract FundMe {... */\n      stop\n        /* \"FundMe.sol\":236:275  uint public constant MIN_USD = 5 * 1e18 */\n    tag_3:\n      callvalue\n      dup1\n      iszero\n      tag_18\n      jumpi\n      0x00\n      dup1\n      revert\n    tag_18:\n      pop\n      tag_19\n      tag_20\n      jump\t// in\n    tag_19:\n      mload(0x40)\n      tag_21\n      swap2\n      swap1\n      tag_22\n      jump\t// in\n    tag_21:\n      mload(0x40)\n      dup1\n      swap2\n      sub\n      swap1\n      return\n        /* \"FundMe.sol\":832:1269  function withdraw() public checkOwner{        ... */\n    tag_4:\n      callvalue\n      dup1\n      iszero\n      tag_23\n      jumpi\n      0x00\n      dup1\n      revert\n    tag_23:\n      pop\n      tag_24\n      tag_25\n      jump\t// in\n    tag_24:\n      stop\n        /* \"FundMe.sol\":336:412  mapping(address funder => uint256 amountFunded) public addressToAmountFunded */\n    tag_5:\n      callvalue\n      dup1\n      iszero\n      tag_26\n      jumpi\n      0x00\n      dup1\n      revert\n    tag_26:\n      pop\n      tag_27\n      0x04\n      dup1\n      calldatasize\n      sub\n      dup2\n      add\n      swap1\n      tag_28\n      swap2\n      swap1\n      tag_29\n      jump\t// in\n    tag_28:\n      tag_30\n      jump\t// in\n    tag_27:\n      mload(0x40)\n      tag_31\n      swap2\n      swap1\n      tag_22\n      jump\t// in\n    tag_31:\n      mload(0x40)\n      dup1\n      swap2\n      sub\n      swap1\n      return\n        /* \"FundMe.sol\":281:300  uint public version */\n    tag_6:\n      callvalue\n      dup1\n      iszero\n      tag_32\n      jumpi\n      0x00\n      dup1\n      revert\n    tag_32:\n      pop\n      tag_33\n      tag_34\n      jump\t// in\n    tag_33:\n      mload(0x40)\n      tag_35\n      swap2\n      swap1\n      tag_22\n      jump\t// in\n    tag_35:\n      mload(0x40)\n      dup1\n      swap2\n      sub\n      swap1\n      return\n        /* \"FundMe.sol\":514:826  function fund() public payable{... */\n    tag_7:\n      tag_36\n      tag_14\n      jump\t// in\n    tag_36:\n      stop\n        /* \"FundMe.sol\":418:450  address public immutable i_owner */\n    tag_8:\n      callvalue\n      dup1\n      iszero\n      tag_37\n      jumpi\n      0x00\n      dup1\n      revert\n    tag_37:\n      pop\n      tag_38\n      tag_39\n      jump\t// in\n    tag_38:\n      mload(0x40)\n      tag_40\n      swap2\n      swap1\n      tag_41\n      jump\t// in\n    tag_40:\n      mload(0x40)\n      dup1\n      swap2\n      sub\n      swap1\n      return\n        /* \"FundMe.sol\":306:330  address[] public funders */\n    tag_9:\n      callvalue\n      dup1\n      iszero\n      tag_42\n      jumpi\n      0x00\n      dup1\n      revert\n    tag_42:\n      pop\n      tag_43\n      0x04\n      dup1\n      calldatasize\n      sub\n      dup2\n      add\n      swap1\n      tag_44\n      swap2\n      swap1\n      tag_45\n      jump\t// in\n    tag_44:\n      tag_46\n      jump\t// in\n    tag_43:\n      mload(0x40)\n      tag_47\n      swap2\n      swap1\n      tag_41\n      jump\t// in\n    tag_47:\n      mload(0x40)\n      dup1\n      swap2\n      sub\n      swap1\n      return\n        /* \"FundMe.sol\":514:826  function fund() public payable{... */\n    tag_14:\n        /* \"FundMe.sol\":267:275  5 * 1e18 */\n      0x4563918244f40000\n        /* \"FundMe.sol\":563:592  msg.value.getConversionRate() */\n      tag_49\n        /* \"FundMe.sol\":563:572  msg.value */\n      callvalue\n        /* \"FundMe.sol\":563:590  msg.value.getConversionRate */\n      tag_50\n        /* \"FundMe.sol\":563:592  msg.value.getConversionRate() */\n      jump\t// in\n    tag_49:\n        /* \"FundMe.sol\":563:603  msg.value.getConversionRate() >= MIN_USD */\n      lt\n      iszero\n        /* \"FundMe.sol\":555:649  require(msg.value.getConversionRate() >= MIN_USD, \"Does not meet the minimum ETH requirement\") */\n      tag_51\n      jumpi\n      mload(0x40)\n      0x08c379a000000000000000000000000000000000000000000000000000000000\n      dup2\n      mstore\n      0x04\n      add\n      tag_52\n      swap1\n      tag_53\n      jump\t// in\n    tag_52:\n      mload(0x40)\n      dup1\n      swap2\n      sub\n      swap1\n      revert\n    tag_51:\n        /* \"FundMe.sol\":267:275  5 * 1e18 */\n      0x4563918244f40000\n        /* \"FundMe.sol\":663:692  msg.value.getConversionRate() */\n      tag_54\n        /* \"FundMe.sol\":663:672  msg.value */\n      callvalue\n        /* \"FundMe.sol\":663:690  msg.value.getConversionRate */\n      tag_50\n        /* \"FundMe.sol\":663:692  msg.value.getConversionRate() */\n      jump\t// in\n    tag_54:\n        /* \"FundMe.sol\":663:703  msg.value.getConversionRate() >= MIN_USD */\n      lt\n        /* \"FundMe.sol\":659:730  if (msg.value.getConversionRate() >= MIN_USD) { revert MinEthError(); } */\n      tag_55\n      jumpi\n        /* \"FundMe.sol\":714:727  MinEthError() */\n      mload(0x40)\n      0x8ee5415300000000000000000000000000000000000000000000000000000000\n      dup2\n      mstore\n      0x04\n      add\n      mload(0x40)\n      dup1\n      swap2\n      sub\n      swap1\n      revert\n        /* \"FundMe.sol\":659:730  if (msg.value.getConversionRate() >= MIN_USD) { revert MinEthError(); } */\n    tag_55:\n        /* \"FundMe.sol\":739:746  funders */\n      0x01\n        /* \"FundMe.sol\":752:762  msg.sender */\n      caller\n        /* \"FundMe.sol\":739:763  funders.push(msg.sender) */\n      swap1\n      dup1\n      0x01\n      dup2\n      sload\n      add\n      dup1\n      dup3\n      sstore\n      dup1\n      swap2\n      pop\n      pop\n      0x01\n      swap1\n      sub\n      swap1\n      0x00\n      mstore\n      keccak256(0x00, 0x20)\n      add\n      0x00\n      swap1\n      swap2\n      swap1\n      swap2\n      swap1\n      swap2\n      0x0100\n      exp\n      dup2\n      sload\n      dup2\n      0xffffffffffffffffffffffffffffffffffffffff\n      mul\n      not\n      and\n      swap1\n      dup4\n      0xffffffffffffffffffffffffffffffffffffffff\n      and\n      mul\n      or\n      swap1\n      sstore\n      pop\n        /* \"FundMe.sol\":810:819  msg.value */\n      callvalue\n        /* \"FundMe.sol\":773:794  addressToAmountFunded */\n      0x02\n        /* \"FundMe.sol\":773:806  addressToAmountFunded[msg.sender] */\n      0x00\n        /* \"FundMe.sol\":795:805  msg.sender */\n      caller\n        /* \"FundMe.sol\":773:806  addressToAmountFunded[msg.sender] */\n      0xffffffffffffffffffffffffffffffffffffffff\n      and\n      0xffffffffffffffffffffffffffffffffffffffff\n      and\n      dup2\n      mstore\n      0x20\n      add\n      swap1\n      dup2\n      mstore\n      0x20\n      add\n      0x00\n      keccak256\n      0x00\n        /* \"FundMe.sol\":773:819  addressToAmountFunded[msg.sender] += msg.value */\n      dup3\n      dup3\n      sload\n      tag_57\n      swap2\n      swap1\n      tag_58\n      jump\t// in\n    tag_57:\n      swap3\n      pop\n      pop\n      dup2\n      swap1\n      sstore\n      pop\n        /* \"FundMe.sol\":514:826  function fund() public payable{... */\n      jump\t// out\n        /* \"FundMe.sol\":236:275  uint public constant MIN_USD = 5 * 1e18 */\n    tag_20:\n        /* \"FundMe.sol\":267:275  5 * 1e18 */\n      0x4563918244f40000\n        /* \"FundMe.sol\":236:275  uint public constant MIN_USD = 5 * 1e18 */\n      dup2\n      jump\t// out\n        /* \"FundMe.sol\":832:1269  function withdraw() public checkOwner{        ... */\n    tag_25:\n        /* \"FundMe.sol\":1411:1418  i_owner */\n      immutable(\"0x57014f1e5f1d53e43fa40624186159531d6372d1ab8f40ec7882845ca66de31d\")\n        /* \"FundMe.sol\":1397:1418  msg.sender != i_owner */\n      0xffffffffffffffffffffffffffffffffffffffff\n      and\n        /* \"FundMe.sol\":1397:1407  msg.sender */\n      caller\n        /* \"FundMe.sol\":1397:1418  msg.sender != i_owner */\n      0xffffffffffffffffffffffffffffffffffffffff\n      and\n      eq\n        /* \"FundMe.sol\":1393:1442  if (msg.sender != i_owner) { revert NotOwner(); } */\n      tag_60\n      jumpi\n        /* \"FundMe.sol\":1429:1439  NotOwner() */\n      mload(0x40)\n      0x30cd747100000000000000000000000000000000000000000000000000000000\n      dup2\n      mstore\n      0x04\n      add\n      mload(0x40)\n      dup1\n      swap2\n      sub\n      swap1\n      revert\n        /* \"FundMe.sol\":1393:1442  if (msg.sender != i_owner) { revert NotOwner(); } */\n    tag_60:\n        /* \"FundMe.sol\":893:899  uint i */\n      0x00\n        /* \"FundMe.sol\":888:1063  for (uint i = 0; i < funders.length; i++) {... */\n    tag_62:\n        /* \"FundMe.sol\":909:916  funders */\n      0x01\n        /* \"FundMe.sol\":909:923  funders.length */\n      dup1\n      sload\n      swap1\n      pop\n        /* \"FundMe.sol\":905:906  i */\n      dup2\n        /* \"FundMe.sol\":905:923  i < funders.length */\n      lt\n        /* \"FundMe.sol\":888:1063  for (uint i = 0; i < funders.length; i++) {... */\n      iszero\n      tag_63\n      jumpi\n        /* \"FundMe.sol\":944:958  address funder */\n      0x00\n        /* \"FundMe.sol\":961:968  funders */\n      0x01\n        /* \"FundMe.sol\":969:970  i */\n      dup3\n        /* \"FundMe.sol\":961:971  funders[i] */\n      dup2\n      sload\n      dup2\n      lt\n      tag_65\n      jumpi\n      tag_66\n      tag_67\n      jump\t// in\n    tag_66:\n    tag_65:\n      swap1\n      0x00\n      mstore\n      keccak256(0x00, 0x20)\n      add\n      0x00\n      swap1\n      sload\n      swap1\n      0x0100\n      exp\n      swap1\n      div\n      0xffffffffffffffffffffffffffffffffffffffff\n      and\n        /* \"FundMe.sol\":944:971  address funder = funders[i] */\n      swap1\n      pop\n        /* \"FundMe.sol\":1051:1052  0 */\n      0x00\n        /* \"FundMe.sol\":1019:1040  addressToAmountFunded */\n      0x02\n        /* \"FundMe.sol\":1019:1048  addressToAmountFunded[funder] */\n      0x00\n        /* \"FundMe.sol\":1041:1047  funder */\n      dup4\n        /* \"FundMe.sol\":1019:1048  addressToAmountFunded[funder] */\n      0xffffffffffffffffffffffffffffffffffffffff\n      and\n      0xffffffffffffffffffffffffffffffffffffffff\n      and\n      dup2\n      mstore\n      0x20\n      add\n      swap1\n      dup2\n      mstore\n      0x20\n      add\n      0x00\n      keccak256\n        /* \"FundMe.sol\":1019:1052  addressToAmountFunded[funder] = 0 */\n      dup2\n      swap1\n      sstore\n      pop\n        /* \"FundMe.sol\":930:1063  {... */\n      pop\n        /* \"FundMe.sol\":925:928  i++ */\n      dup1\n      dup1\n      tag_69\n      swap1\n      tag_70\n      jump\t// in\n    tag_69:\n      swap2\n      pop\n      pop\n        /* \"FundMe.sol\":888:1063  for (uint i = 0; i < funders.length; i++) {... */\n      jump(tag_62)\n    tag_63:\n      pop\n        /* \"FundMe.sol\":1096:1097  0 */\n      0x00\n        /* \"FundMe.sol\":1082:1098  new address[](0) */\n      0xffffffffffffffff\n      dup2\n      gt\n      iszero\n      tag_71\n      jumpi\n      tag_72\n      tag_73\n      jump\t// in\n    tag_72:\n    tag_71:\n      mload(0x40)\n      swap1\n      dup1\n      dup3\n      mstore\n      dup1\n      0x20\n      mul\n      0x20\n      add\n      dup3\n      add\n      0x40\n      mstore\n      dup1\n      iszero\n      tag_74\n      jumpi\n      dup2\n      0x20\n      add\n      0x20\n      dup3\n      mul\n      dup1\n      calldatasize\n      dup4\n      calldatacopy\n      dup1\n      dup3\n      add\n      swap2\n      pop\n      pop\n      swap1\n      pop\n    tag_74:\n      pop\n        /* \"FundMe.sol\":1072:1079  funders */\n      0x01\n        /* \"FundMe.sol\":1072:1098  funders = new address[](0) */\n      swap1\n      dup1\n      mload\n      swap1\n      0x20\n      add\n      swap1\n      tag_75\n      swap3\n      swap2\n      swap1\n      tag_76\n      jump\t// in\n    tag_75:\n      pop\n        /* \"FundMe.sol\":1127:1143  bool callSuccess */\n      0x00\n        /* \"FundMe.sol\":1156:1166  msg.sender */\n      caller\n        /* \"FundMe.sol\":1148:1172  payable(msg.sender).call */\n      0xffffffffffffffffffffffffffffffffffffffff\n      and\n        /* \"FundMe.sol\":1180:1201  address(this).balance */\n      selfbalance\n        /* \"FundMe.sol\":1148:1206  payable(msg.sender).call{value: address(this).balance}(\"\") */\n      mload(0x40)\n      tag_77\n      swap1\n      tag_78\n      jump\t// in\n    tag_77:\n      0x00\n      mload(0x40)\n      dup1\n      dup4\n      sub\n      dup2\n      dup6\n      dup8\n      gas\n      call\n      swap3\n      pop\n      pop\n      pop\n      returndatasize\n      dup1\n      0x00\n      dup2\n      eq\n      tag_81\n      jumpi\n      mload(0x40)\n      swap2\n      pop\n      and(add(returndatasize, 0x3f), not(0x1f))\n      dup3\n      add\n      0x40\n      mstore\n      returndatasize\n      dup3\n      mstore\n      returndatasize\n      0x00\n      0x20\n      dup5\n      add\n      returndatacopy\n      jump(tag_80)\n    tag_81:\n      0x60\n      swap2\n      pop\n    tag_80:\n      pop\n        /* \"FundMe.sol\":1126:1206  (bool callSuccess,) = payable(msg.sender).call{value: address(this).balance}(\"\") */\n      pop\n      swap1\n      pop\n        /* \"FundMe.sol\":1224:1235  callSuccess */\n      dup1\n        /* \"FundMe.sol\":1220:1262  if (callSuccess) { revert CallFailure(); } */\n      iszero\n      tag_82\n      jumpi\n        /* \"FundMe.sol\":1246:1259  CallFailure() */\n      mload(0x40)\n      0x674ac13200000000000000000000000000000000000000000000000000000000\n      dup2\n      mstore\n      0x04\n      add\n      mload(0x40)\n      dup1\n      swap2\n      sub\n      swap1\n      revert\n        /* \"FundMe.sol\":1220:1262  if (callSuccess) { revert CallFailure(); } */\n    tag_82:\n        /* \"FundMe.sol\":869:1269  {        ... */\n      pop\n        /* \"FundMe.sol\":832:1269  function withdraw() public checkOwner{        ... */\n      jump\t// out\n        /* \"FundMe.sol\":336:412  mapping(address funder => uint256 amountFunded) public addressToAmountFunded */\n    tag_30:\n      mstore(0x20, 0x02)\n      dup1\n      0x00\n      mstore\n      keccak256(0x00, 0x40)\n      0x00\n      swap2\n      pop\n      swap1\n      pop\n      sload\n      dup2\n      jump\t// out\n        /* \"FundMe.sol\":281:300  uint public version */\n    tag_34:\n      sload(0x00)\n      dup2\n      jump\t// out\n        /* \"FundMe.sol\":418:450  address public immutable i_owner */\n    tag_39:\n      immutable(\"0x57014f1e5f1d53e43fa40624186159531d6372d1ab8f40ec7882845ca66de31d\")\n      dup2\n      jump\t// out\n        /* \"FundMe.sol\":306:330  address[] public funders */\n    tag_46:\n      0x01\n      dup2\n      dup2\n      sload\n      dup2\n      lt\n      tag_83\n      jumpi\n      0x00\n      dup1\n      revert\n    tag_83:\n      swap1\n      0x00\n      mstore\n      keccak256(0x00, 0x20)\n      add\n      0x00\n      swap2\n      pop\n      sload\n      swap1\n      0x0100\n      exp\n      swap1\n      div\n      0xffffffffffffffffffffffffffffffffffffffff\n      and\n      dup2\n      jump\t// out\n        /* \"PriceConverter.sol\":466:687  function getConversionRate(uint256 ethAmount) internal view returns(uint256) {... */\n    tag_50:\n        /* \"PriceConverter.sol\":534:541  uint256 */\n      0x00\n        /* \"PriceConverter.sol\":553:569  uint256 ethPrice */\n      dup1\n        /* \"PriceConverter.sol\":572:585  getEthPrice() */\n      tag_86\n        /* \"PriceConverter.sol\":572:583  getEthPrice */\n      tag_87\n        /* \"PriceConverter.sol\":572:585  getEthPrice() */\n      jump\t// in\n    tag_86:\n        /* \"PriceConverter.sol\":553:585  uint256 ethPrice = getEthPrice() */\n      swap1\n      pop\n        /* \"PriceConverter.sol\":595:617  uint256 ethAmountInUsd */\n      0x00\n        /* \"PriceConverter.sol\":645:649  1e18 */\n      0x0de0b6b3a7640000\n        /* \"PriceConverter.sol\":632:641  ethAmount */\n      dup5\n        /* \"PriceConverter.sol\":621:629  ethPrice */\n      dup4\n        /* \"PriceConverter.sol\":621:641  ethPrice * ethAmount */\n      tag_88\n      swap2\n      swap1\n      tag_89\n      jump\t// in\n    tag_88:\n        /* \"PriceConverter.sol\":620:649  (ethPrice * ethAmount) / 1e18 */\n      tag_90\n      swap2\n      swap1\n      tag_91\n      jump\t// in\n    tag_90:\n        /* \"PriceConverter.sol\":595:649  uint256 ethAmountInUsd = (ethPrice * ethAmount) / 1e18 */\n      swap1\n      pop\n        /* \"PriceConverter.sol\":666:680  ethAmountInUsd */\n      dup1\n        /* \"PriceConverter.sol\":659:680  return ethAmountInUsd */\n      swap3\n      pop\n      pop\n      pop\n        /* \"PriceConverter.sol\":466:687  function getConversionRate(uint256 ethAmount) internal view returns(uint256) {... */\n      swap2\n      swap1\n      pop\n      jump\t// out\n        /* \"PriceConverter.sol\":202:460  function getEthPrice() internal view returns(uint){... */\n    tag_87:\n        /* \"PriceConverter.sol\":247:251  uint */\n      0x00\n        /* \"PriceConverter.sol\":262:292  AggregatorV3Interface ethPrice */\n      dup1\n        /* \"PriceConverter.sol\":317:359  0x694AA1769357215DE4FAC081bf1f309aDC325306 */\n      0x694aa1769357215de4fac081bf1f309adc325306\n        /* \"PriceConverter.sol\":262:360  AggregatorV3Interface ethPrice = AggregatorV3Interface(0x694AA1769357215DE4FAC081bf1f309aDC325306) */\n      swap1\n      pop\n        /* \"PriceConverter.sol\":373:382  int price */\n      0x00\n        /* \"PriceConverter.sol\":392:400  ethPrice */\n      dup2\n        /* \"PriceConverter.sol\":392:416  ethPrice.latestRoundData */\n      0xffffffffffffffffffffffffffffffffffffffff\n      and\n      0xfeaf968c\n        /* \"PriceConverter.sol\":392:418  ethPrice.latestRoundData() */\n      mload(0x40)\n      dup2\n      0xffffffff\n      and\n      0xe0\n      shl\n      dup2\n      mstore\n      0x04\n      add\n      0xa0\n      mload(0x40)\n      dup1\n      dup4\n      sub\n      dup2\n      dup7\n      gas\n      staticcall\n      iszero\n      dup1\n      iszero\n      tag_94\n      jumpi\n      returndatasize\n      0x00\n      dup1\n      returndatacopy\n      revert(0x00, returndatasize)\n    tag_94:\n      pop\n      pop\n      pop\n      pop\n      mload(0x40)\n      returndatasize\n      not(0x1f)\n      0x1f\n      dup3\n      add\n      and\n      dup3\n      add\n      dup1\n      0x40\n      mstore\n      pop\n      dup2\n      add\n      swap1\n      tag_95\n      swap2\n      swap1\n      tag_96\n      jump\t// in\n    tag_95:\n        /* \"PriceConverter.sol\":370:418  (, int price, , , ) = ethPrice.latestRoundData() */\n      pop\n      pop\n      pop\n      swap2\n      pop\n      pop\n        /* \"PriceConverter.sol\":448:452  1e10 */\n      0x02540be400\n        /* \"PriceConverter.sol\":440:445  price */\n      dup2\n        /* \"PriceConverter.sol\":440:452  price * 1e10 */\n      tag_97\n      swap2\n      swap1\n      tag_98\n      jump\t// in\n    tag_97:\n        /* \"PriceConverter.sol\":428:453  return uint(price * 1e10) */\n      swap3\n      pop\n      pop\n      pop\n        /* \"PriceConverter.sol\":202:460  function getEthPrice() internal view returns(uint){... */\n      swap1\n      jump\t// out\n    tag_76:\n      dup3\n      dup1\n      sload\n      dup3\n      dup3\n      sstore\n      swap1\n      0x00\n      mstore\n      keccak256(0x00, 0x20)\n      swap1\n      dup2\n      add\n      swap3\n      dup3\n      iszero\n      tag_99\n      jumpi\n      swap2\n      0x20\n      mul\n      dup3\n      add\n    tag_100:\n      dup3\n      dup2\n      gt\n      iszero\n      tag_101\n      jumpi\n      dup3\n      mload\n      dup3\n      exp(0x0100, 0x00)\n      dup2\n      sload\n      dup2\n      0xffffffffffffffffffffffffffffffffffffffff\n      mul\n      not\n      and\n      swap1\n      dup4\n      0xffffffffffffffffffffffffffffffffffffffff\n      and\n      mul\n      or\n      swap1\n      sstore\n      pop\n      swap2\n      0x20\n      add\n      swap2\n      swap1\n      0x01\n      add\n      swap1\n      jump(tag_100)\n    tag_101:\n    tag_99:\n      pop\n      swap1\n      pop\n      tag_102\n      swap2\n      swap1\n      tag_103\n      jump\t// in\n    tag_102:\n      pop\n      swap1\n      jump\t// out\n    tag_103:\n    tag_104:\n      dup1\n      dup3\n      gt\n      iszero\n      tag_105\n      jumpi\n      0x00\n      dup2\n      0x00\n      swap1\n      sstore\n      pop\n      0x01\n      add\n      jump(tag_104)\n    tag_105:\n      pop\n      swap1\n      jump\t// out\n        /* \"#utility.yul\":7:84   */\n    tag_106:\n        /* \"#utility.yul\":44:51   */\n      0x00\n        /* \"#utility.yul\":73:78   */\n      dup2\n        /* \"#utility.yul\":62:78   */\n      swap1\n      pop\n        /* \"#utility.yul\":7:84   */\n      swap2\n      swap1\n      pop\n      jump\t// out\n        /* \"#utility.yul\":90:208   */\n    tag_107:\n        /* \"#utility.yul\":177:201   */\n      tag_136\n        /* \"#utility.yul\":195:200   */\n      dup2\n        /* \"#utility.yul\":177:201   */\n      tag_106\n      jump\t// in\n    tag_136:\n        /* \"#utility.yul\":172:175   */\n      dup3\n        /* \"#utility.yul\":165:202   */\n      mstore\n        /* \"#utility.yul\":90:208   */\n      pop\n      pop\n      jump\t// out\n        /* \"#utility.yul\":214:436   */\n    tag_22:\n        /* \"#utility.yul\":307:311   */\n      0x00\n        /* \"#utility.yul\":345:347   */\n      0x20\n        /* \"#utility.yul\":334:343   */\n      dup3\n        /* \"#utility.yul\":330:348   */\n      add\n        /* \"#utility.yul\":322:348   */\n      swap1\n      pop\n        /* \"#utility.yul\":358:429   */\n      tag_138\n        /* \"#utility.yul\":426:427   */\n      0x00\n        /* \"#utility.yul\":415:424   */\n      dup4\n        /* \"#utility.yul\":411:428   */\n      add\n        /* \"#utility.yul\":402:408   */\n      dup5\n        /* \"#utility.yul\":358:429   */\n      tag_107\n      jump\t// in\n    tag_138:\n        /* \"#utility.yul\":214:436   */\n      swap3\n      swap2\n      pop\n      pop\n      jump\t// out\n        /* \"#utility.yul\":523:640   */\n    tag_109:\n        /* \"#utility.yul\":632:633   */\n      0x00\n        /* \"#utility.yul\":629:630   */\n      dup1\n        /* \"#utility.yul\":622:634   */\n      revert\n        /* \"#utility.yul\":769:895   */\n    tag_111:\n        /* \"#utility.yul\":806:813   */\n      0x00\n        /* \"#utility.yul\":846:888   */\n      0xffffffffffffffffffffffffffffffffffffffff\n        /* \"#utility.yul\":839:844   */\n      dup3\n        /* \"#utility.yul\":835:889   */\n      and\n        /* \"#utility.yul\":824:889   */\n      swap1\n      pop\n        /* \"#utility.yul\":769:895   */\n      swap2\n      swap1\n      pop\n      jump\t// out\n        /* \"#utility.yul\":901:997   */\n    tag_112:\n        /* \"#utility.yul\":938:945   */\n      0x00\n        /* \"#utility.yul\":967:991   */\n      tag_144\n        /* \"#utility.yul\":985:990   */\n      dup3\n        /* \"#utility.yul\":967:991   */\n      tag_111\n      jump\t// in\n    tag_144:\n        /* \"#utility.yul\":956:991   */\n      swap1\n      pop\n        /* \"#utility.yul\":901:997   */\n      swap2\n      swap1\n      pop\n      jump\t// out\n        /* \"#utility.yul\":1003:1125   */\n    tag_113:\n        /* \"#utility.yul\":1076:1100   */\n      tag_146\n        /* \"#utility.yul\":1094:1099   */\n      dup2\n        /* \"#utility.yul\":1076:1100   */\n      tag_112\n      jump\t// in\n    tag_146:\n        /* \"#utility.yul\":1069:1074   */\n      dup2\n        /* \"#utility.yul\":1066:1101   */\n      eq\n        /* \"#utility.yul\":1056:1119   */\n      tag_147\n      jumpi\n        /* \"#utility.yul\":1115:1116   */\n      0x00\n        /* \"#utility.yul\":1112:1113   */\n      dup1\n        /* \"#utility.yul\":1105:1117   */\n      revert\n        /* \"#utility.yul\":1056:1119   */\n    tag_147:\n        /* \"#utility.yul\":1003:1125   */\n      pop\n      jump\t// out\n        /* \"#utility.yul\":1131:1270   */\n    tag_114:\n        /* \"#utility.yul\":1177:1182   */\n      0x00\n        /* \"#utility.yul\":1215:1221   */\n      dup2\n        /* \"#utility.yul\":1202:1222   */\n      calldataload\n        /* \"#utility.yul\":1193:1222   */\n      swap1\n      pop\n        /* \"#utility.yul\":1231:1264   */\n      tag_149\n        /* \"#utility.yul\":1258:1263   */\n      dup2\n        /* \"#utility.yul\":1231:1264   */\n      tag_113\n      jump\t// in\n    tag_149:\n        /* \"#utility.yul\":1131:1270   */\n      swap3\n      swap2\n      pop\n      pop\n      jump\t// out\n        /* \"#utility.yul\":1276:1605   */\n    tag_29:\n        /* \"#utility.yul\":1335:1341   */\n      0x00\n        /* \"#utility.yul\":1384:1386   */\n      0x20\n        /* \"#utility.yul\":1372:1381   */\n      dup3\n        /* \"#utility.yul\":1363:1370   */\n      dup5\n        /* \"#utility.yul\":1359:1382   */\n      sub\n        /* \"#utility.yul\":1355:1387   */\n      slt\n        /* \"#utility.yul\":1352:1471   */\n      iszero\n      tag_151\n      jumpi\n        /* \"#utility.yul\":1390:1469   */\n      tag_152\n      tag_109\n      jump\t// in\n    tag_152:\n        /* \"#utility.yul\":1352:1471   */\n    tag_151:\n        /* \"#utility.yul\":1510:1511   */\n      0x00\n        /* \"#utility.yul\":1535:1588   */\n      tag_153\n        /* \"#utility.yul\":1580:1587   */\n      dup5\n        /* \"#utility.yul\":1571:1577   */\n      dup3\n        /* \"#utility.yul\":1560:1569   */\n      dup6\n        /* \"#utility.yul\":1556:1578   */\n      add\n        /* \"#utility.yul\":1535:1588   */\n      tag_114\n      jump\t// in\n    tag_153:\n        /* \"#utility.yul\":1525:1588   */\n      swap2\n      pop\n        /* \"#utility.yul\":1481:1598   */\n      pop\n        /* \"#utility.yul\":1276:1605   */\n      swap3\n      swap2\n      pop\n      pop\n      jump\t// out\n        /* \"#utility.yul\":1611:1729   */\n    tag_115:\n        /* \"#utility.yul\":1698:1722   */\n      tag_155\n        /* \"#utility.yul\":1716:1721   */\n      dup2\n        /* \"#utility.yul\":1698:1722   */\n      tag_112\n      jump\t// in\n    tag_155:\n        /* \"#utility.yul\":1693:1696   */\n      dup3\n        /* \"#utility.yul\":1686:1723   */\n      mstore\n        /* \"#utility.yul\":1611:1729   */\n      pop\n      pop\n      jump\t// out\n        /* \"#utility.yul\":1735:1957   */\n    tag_41:\n        /* \"#utility.yul\":1828:1832   */\n      0x00\n        /* \"#utility.yul\":1866:1868   */\n      0x20\n        /* \"#utility.yul\":1855:1864   */\n      dup3\n        /* \"#utility.yul\":1851:1869   */\n      add\n        /* \"#utility.yul\":1843:1869   */\n      swap1\n      pop\n        /* \"#utility.yul\":1879:1950   */\n      tag_157\n        /* \"#utility.yul\":1947:1948   */\n      0x00\n        /* \"#utility.yul\":1936:1945   */\n      dup4\n        /* \"#utility.yul\":1932:1949   */\n      add\n        /* \"#utility.yul\":1923:1929   */\n      dup5\n        /* \"#utility.yul\":1879:1950   */\n      tag_115\n      jump\t// in\n    tag_157:\n        /* \"#utility.yul\":1735:1957   */\n      swap3\n      swap2\n      pop\n      pop\n      jump\t// out\n        /* \"#utility.yul\":1963:2085   */\n    tag_116:\n        /* \"#utility.yul\":2036:2060   */\n      tag_159\n        /* \"#utility.yul\":2054:2059   */\n      dup2\n        /* \"#utility.yul\":2036:2060   */\n      tag_106\n      jump\t// in\n    tag_159:\n        /* \"#utility.yul\":2029:2034   */\n      dup2\n        /* \"#utility.yul\":2026:2061   */\n      eq\n        /* \"#utility.yul\":2016:2079   */\n      tag_160\n      jumpi\n        /* \"#utility.yul\":2075:2076   */\n      0x00\n        /* \"#utility.yul\":2072:2073   */\n      dup1\n        /* \"#utility.yul\":2065:2077   */\n      revert\n        /* \"#utility.yul\":2016:2079   */\n    tag_160:\n        /* \"#utility.yul\":1963:2085   */\n      pop\n      jump\t// out\n        /* \"#utility.yul\":2091:2230   */\n    tag_117:\n        /* \"#utility.yul\":2137:2142   */\n      0x00\n        /* \"#utility.yul\":2175:2181   */\n      dup2\n        /* \"#utility.yul\":2162:2182   */\n      calldataload\n        /* \"#utility.yul\":2153:2182   */\n      swap1\n      pop\n        /* \"#utility.yul\":2191:2224   */\n      tag_162\n        /* \"#utility.yul\":2218:2223   */\n      dup2\n        /* \"#utility.yul\":2191:2224   */\n      tag_116\n      jump\t// in\n    tag_162:\n        /* \"#utility.yul\":2091:2230   */\n      swap3\n      swap2\n      pop\n      pop\n      jump\t// out\n        /* \"#utility.yul\":2236:2565   */\n    tag_45:\n        /* \"#utility.yul\":2295:2301   */\n      0x00\n        /* \"#utility.yul\":2344:2346   */\n      0x20\n        /* \"#utility.yul\":2332:2341   */\n      dup3\n        /* \"#utility.yul\":2323:2330   */\n      dup5\n        /* \"#utility.yul\":2319:2342   */\n      sub\n        /* \"#utility.yul\":2315:2347   */\n      slt\n        /* \"#utility.yul\":2312:2431   */\n      iszero\n      tag_164\n      jumpi\n        /* \"#utility.yul\":2350:2429   */\n      tag_165\n      tag_109\n      jump\t// in\n    tag_165:\n        /* \"#utility.yul\":2312:2431   */\n    tag_164:\n        /* \"#utility.yul\":2470:2471   */\n      0x00\n        /* \"#utility.yul\":2495:2548   */\n      tag_166\n        /* \"#utility.yul\":2540:2547   */\n      dup5\n        /* \"#utility.yul\":2531:2537   */\n      dup3\n        /* \"#utility.yul\":2520:2529   */\n      dup6\n        /* \"#utility.yul\":2516:2538   */\n      add\n        /* \"#utility.yul\":2495:2548   */\n      tag_117\n      jump\t// in\n    tag_166:\n        /* \"#utility.yul\":2485:2548   */\n      swap2\n      pop\n        /* \"#utility.yul\":2441:2558   */\n      pop\n        /* \"#utility.yul\":2236:2565   */\n      swap3\n      swap2\n      pop\n      pop\n      jump\t// out\n        /* \"#utility.yul\":2571:2740   */\n    tag_118:\n        /* \"#utility.yul\":2655:2666   */\n      0x00\n        /* \"#utility.yul\":2689:2695   */\n      dup3\n        /* \"#utility.yul\":2684:2687   */\n      dup3\n        /* \"#utility.yul\":2677:2696   */\n      mstore\n        /* \"#utility.yul\":2729:2733   */\n      0x20\n        /* \"#utility.yul\":2724:2727   */\n      dup3\n        /* \"#utility.yul\":2720:2734   */\n      add\n        /* \"#utility.yul\":2705:2734   */\n      swap1\n      pop\n        /* \"#utility.yul\":2571:2740   */\n      swap3\n      swap2\n      pop\n      pop\n      jump\t// out\n        /* \"#utility.yul\":2746:2974   */\n    tag_119:\n        /* \"#utility.yul\":2886:2920   */\n      0x446f6573206e6f74206d65657420746865206d696e696d756d20455448207265\n        /* \"#utility.yul\":2882:2883   */\n      0x00\n        /* \"#utility.yul\":2874:2880   */\n      dup3\n        /* \"#utility.yul\":2870:2884   */\n      add\n        /* \"#utility.yul\":2863:2921   */\n      mstore\n        /* \"#utility.yul\":2955:2966   */\n      0x71756972656d656e740000000000000000000000000000000000000000000000\n        /* \"#utility.yul\":2950:2952   */\n      0x20\n        /* \"#utility.yul\":2942:2948   */\n      dup3\n        /* \"#utility.yul\":2938:2953   */\n      add\n        /* \"#utility.yul\":2931:2967   */\n      mstore\n        /* \"#utility.yul\":2746:2974   */\n      pop\n      jump\t// out\n        /* \"#utility.yul\":2980:3346   */\n    tag_120:\n        /* \"#utility.yul\":3122:3125   */\n      0x00\n        /* \"#utility.yul\":3143:3210   */\n      tag_170\n        /* \"#utility.yul\":3207:3209   */\n      0x29\n        /* \"#utility.yul\":3202:3205   */\n      dup4\n        /* \"#utility.yul\":3143:3210   */\n      tag_118\n      jump\t// in\n    tag_170:\n        /* \"#utility.yul\":3136:3210   */\n      swap2\n      pop\n        /* \"#utility.yul\":3219:3312   */\n      tag_171\n        /* \"#utility.yul\":3308:3311   */\n      dup3\n        /* \"#utility.yul\":3219:3312   */\n      tag_119\n      jump\t// in\n    tag_171:\n        /* \"#utility.yul\":3337:3339   */\n      0x40\n        /* \"#utility.yul\":3332:3335   */\n      dup3\n        /* \"#utility.yul\":3328:3340   */\n      add\n        /* \"#utility.yul\":3321:3340   */\n      swap1\n      pop\n        /* \"#utility.yul\":2980:3346   */\n      swap2\n      swap1\n      pop\n      jump\t// out\n        /* \"#utility.yul\":3352:3771   */\n    tag_53:\n        /* \"#utility.yul\":3518:3522   */\n      0x00\n        /* \"#utility.yul\":3556:3558   */\n      0x20\n        /* \"#utility.yul\":3545:3554   */\n      dup3\n        /* \"#utility.yul\":3541:3559   */\n      add\n        /* \"#utility.yul\":3533:3559   */\n      swap1\n      pop\n        /* \"#utility.yul\":3605:3614   */\n      dup2\n        /* \"#utility.yul\":3599:3603   */\n      dup2\n        /* \"#utility.yul\":3595:3615   */\n      sub\n        /* \"#utility.yul\":3591:3592   */\n      0x00\n        /* \"#utility.yul\":3580:3589   */\n      dup4\n        /* \"#utility.yul\":3576:3593   */\n      add\n        /* \"#utility.yul\":3569:3616   */\n      mstore\n        /* \"#utility.yul\":3633:3764   */\n      tag_173\n        /* \"#utility.yul\":3759:3763   */\n      dup2\n        /* \"#utility.yul\":3633:3764   */\n      tag_120\n      jump\t// in\n    tag_173:\n        /* \"#utility.yul\":3625:3764   */\n      swap1\n      pop\n        /* \"#utility.yul\":3352:3771   */\n      swap2\n      swap1\n      pop\n      jump\t// out\n        /* \"#utility.yul\":3777:3957   */\n    tag_121:\n        /* \"#utility.yul\":3825:3902   */\n      0x4e487b7100000000000000000000000000000000000000000000000000000000\n        /* \"#utility.yul\":3822:3823   */\n      0x00\n        /* \"#utility.yul\":3815:3903   */\n      mstore\n        /* \"#utility.yul\":3922:3926   */\n      0x11\n        /* \"#utility.yul\":3919:3920   */\n      0x04\n        /* \"#utility.yul\":3912:3927   */\n      mstore\n        /* \"#utility.yul\":3946:3950   */\n      0x24\n        /* \"#utility.yul\":3943:3944   */\n      0x00\n        /* \"#utility.yul\":3936:3951   */\n      revert\n        /* \"#utility.yul\":3963:4154   */\n    tag_58:\n        /* \"#utility.yul\":4003:4006   */\n      0x00\n        /* \"#utility.yul\":4022:4042   */\n      tag_176\n        /* \"#utility.yul\":4040:4041   */\n      dup3\n        /* \"#utility.yul\":4022:4042   */\n      tag_106\n      jump\t// in\n    tag_176:\n        /* \"#utility.yul\":4017:4042   */\n      swap2\n      pop\n        /* \"#utility.yul\":4056:4076   */\n      tag_177\n        /* \"#utility.yul\":4074:4075   */\n      dup4\n        /* \"#utility.yul\":4056:4076   */\n      tag_106\n      jump\t// in\n    tag_177:\n        /* \"#utility.yul\":4051:4076   */\n      swap3\n      pop\n        /* \"#utility.yul\":4099:4100   */\n      dup3\n        /* \"#utility.yul\":4096:4097   */\n      dup3\n        /* \"#utility.yul\":4092:4101   */\n      add\n        /* \"#utility.yul\":4085:4101   */\n      swap1\n      pop\n        /* \"#utility.yul\":4120:4123   */\n      dup1\n        /* \"#utility.yul\":4117:4118   */\n      dup3\n        /* \"#utility.yul\":4114:4124   */\n      gt\n        /* \"#utility.yul\":4111:4147   */\n      iszero\n      tag_178\n      jumpi\n        /* \"#utility.yul\":4127:4145   */\n      tag_179\n      tag_121\n      jump\t// in\n    tag_179:\n        /* \"#utility.yul\":4111:4147   */\n    tag_178:\n        /* \"#utility.yul\":3963:4154   */\n      swap3\n      swap2\n      pop\n      pop\n      jump\t// out\n        /* \"#utility.yul\":4160:4340   */\n    tag_67:\n        /* \"#utility.yul\":4208:4285   */\n      0x4e487b7100000000000000000000000000000000000000000000000000000000\n        /* \"#utility.yul\":4205:4206   */\n      0x00\n        /* \"#utility.yul\":4198:4286   */\n      mstore\n        /* \"#utility.yul\":4305:4309   */\n      0x32\n        /* \"#utility.yul\":4302:4303   */\n      0x04\n        /* \"#utility.yul\":4295:4310   */\n      mstore\n        /* \"#utility.yul\":4329:4333   */\n      0x24\n        /* \"#utility.yul\":4326:4327   */\n      0x00\n        /* \"#utility.yul\":4319:4334   */\n      revert\n        /* \"#utility.yul\":4346:4579   */\n    tag_70:\n        /* \"#utility.yul\":4385:4388   */\n      0x00\n        /* \"#utility.yul\":4408:4432   */\n      tag_182\n        /* \"#utility.yul\":4426:4431   */\n      dup3\n        /* \"#utility.yul\":4408:4432   */\n      tag_106\n      jump\t// in\n    tag_182:\n        /* \"#utility.yul\":4399:4432   */\n      swap2\n      pop\n        /* \"#utility.yul\":4454:4520   */\n      0xffffffffffffffffffffffffffffffffffffffffffffffffffffffffffffffff\n        /* \"#utility.yul\":4447:4452   */\n      dup3\n        /* \"#utility.yul\":4444:4521   */\n      sub\n        /* \"#utility.yul\":4441:4544   */\n      tag_183\n      jumpi\n        /* \"#utility.yul\":4524:4542   */\n      tag_184\n      tag_121\n      jump\t// in\n    tag_184:\n        /* \"#utility.yul\":4441:4544   */\n    tag_183:\n        /* \"#utility.yul\":4571:4572   */\n      0x01\n        /* \"#utility.yul\":4564:4569   */\n      dup3\n        /* \"#utility.yul\":4560:4573   */\n      add\n        /* \"#utility.yul\":4553:4573   */\n      swap1\n      pop\n        /* \"#utility.yul\":4346:4579   */\n      swap2\n      swap1\n      pop\n      jump\t// out\n        /* \"#utility.yul\":4585:4765   */\n    tag_73:\n        /* \"#utility.yul\":4633:4710   */\n      0x4e487b7100000000000000000000000000000000000000000000000000000000\n        /* \"#utility.yul\":4630:4631   */\n      0x00\n        /* \"#utility.yul\":4623:4711   */\n      mstore\n        /* \"#utility.yul\":4730:4734   */\n      0x41\n        /* \"#utility.yul\":4727:4728   */\n      0x04\n        /* \"#utility.yul\":4720:4735   */\n      mstore\n        /* \"#utility.yul\":4754:4758   */\n      0x24\n        /* \"#utility.yul\":4751:4752   */\n      0x00\n        /* \"#utility.yul\":4744:4759   */\n      revert\n        /* \"#utility.yul\":4771:4918   */\n    tag_122:\n        /* \"#utility.yul\":4872:4883   */\n      0x00\n        /* \"#utility.yul\":4909:4912   */\n      dup2\n        /* \"#utility.yul\":4894:4912   */\n      swap1\n      pop\n        /* \"#utility.yul\":4771:4918   */\n      swap3\n      swap2\n      pop\n      pop\n      jump\t// out\n        /* \"#utility.yul\":4924:5038   */\n    tag_123:\n      pop\n      jump\t// out\n        /* \"#utility.yul\":5044:5442   */\n    tag_124:\n        /* \"#utility.yul\":5203:5206   */\n      0x00\n        /* \"#utility.yul\":5224:5307   */\n      tag_189\n        /* \"#utility.yul\":5305:5306   */\n      0x00\n        /* \"#utility.yul\":5300:5303   */\n      dup4\n        /* \"#utility.yul\":5224:5307   */\n      tag_122\n      jump\t// in\n    tag_189:\n        /* \"#utility.yul\":5217:5307   */\n      swap2\n      pop\n        /* \"#utility.yul\":5316:5409   */\n      tag_190\n        /* \"#utility.yul\":5405:5408   */\n      dup3\n        /* \"#utility.yul\":5316:5409   */\n      tag_123\n      jump\t// in\n    tag_190:\n        /* \"#utility.yul\":5434:5435   */\n      0x00\n        /* \"#utility.yul\":5429:5432   */\n      dup3\n        /* \"#utility.yul\":5425:5436   */\n      add\n        /* \"#utility.yul\":5418:5436   */\n      swap1\n      pop\n        /* \"#utility.yul\":5044:5442   */\n      swap2\n      swap1\n      pop\n      jump\t// out\n        /* \"#utility.yul\":5448:5827   */\n    tag_78:\n        /* \"#utility.yul\":5632:5635   */\n      0x00\n        /* \"#utility.yul\":5654:5801   */\n      tag_192\n        /* \"#utility.yul\":5797:5800   */\n      dup3\n        /* \"#utility.yul\":5654:5801   */\n      tag_124\n      jump\t// in\n    tag_192:\n        /* \"#utility.yul\":5647:5801   */\n      swap2\n      pop\n        /* \"#utility.yul\":5818:5821   */\n      dup2\n        /* \"#utility.yul\":5811:5821   */\n      swap1\n      pop\n        /* \"#utility.yul\":5448:5827   */\n      swap2\n      swap1\n      pop\n      jump\t// out\n        /* \"#utility.yul\":5833:6243   */\n    tag_89:\n        /* \"#utility.yul\":5873:5880   */\n      0x00\n        /* \"#utility.yul\":5896:5916   */\n      tag_194\n        /* \"#utility.yul\":5914:5915   */\n      dup3\n        /* \"#utility.yul\":5896:5916   */\n      tag_106\n      jump\t// in\n    tag_194:\n        /* \"#utility.yul\":5891:5916   */\n      swap2\n      pop\n        /* \"#utility.yul\":5930:5950   */\n      tag_195\n        /* \"#utility.yul\":5948:5949   */\n      dup4\n        /* \"#utility.yul\":5930:5950   */\n      tag_106\n      jump\t// in\n    tag_195:\n        /* \"#utility.yul\":5925:5950   */\n      swap3\n      pop\n        /* \"#utility.yul\":5985:5986   */\n      dup3\n        /* \"#utility.yul\":5982:5983   */\n      dup3\n        /* \"#utility.yul\":5978:5987   */\n      mul\n        /* \"#utility.yul\":6007:6037   */\n      tag_196\n        /* \"#utility.yul\":6025:6036   */\n      dup2\n        /* \"#utility.yul\":6007:6037   */\n      tag_106\n      jump\t// in\n    tag_196:\n        /* \"#utility.yul\":5996:6037   */\n      swap2\n      pop\n        /* \"#utility.yul\":6186:6187   */\n      dup3\n        /* \"#utility.yul\":6177:6184   */\n      dup3\n        /* \"#utility.yul\":6173:6188   */\n      div\n        /* \"#utility.yul\":6170:6171   */\n      dup5\n        /* \"#utility.yul\":6167:6189   */\n      eq\n        /* \"#utility.yul\":6147:6148   */\n      dup4\n        /* \"#utility.yul\":6140:6149   */\n      iszero\n        /* \"#utility.yul\":6120:6203   */\n      or\n        /* \"#utility.yul\":6097:6236   */\n      tag_197\n      jumpi\n        /* \"#utility.yul\":6216:6234   */\n      tag_198\n      tag_121\n      jump\t// in\n    tag_198:\n        /* \"#utility.yul\":6097:6236   */\n    tag_197:\n        /* \"#utility.yul\":5881:6243   */\n      pop\n        /* \"#utility.yul\":5833:6243   */\n      swap3\n      swap2\n      pop\n      pop\n      jump\t// out\n        /* \"#utility.yul\":6249:6429   */\n    tag_125:\n        /* \"#utility.yul\":6297:6374   */\n      0x4e487b7100000000000000000000000000000000000000000000000000000000\n        /* \"#utility.yul\":6294:6295   */\n      0x00\n        /* \"#utility.yul\":6287:6375   */\n      mstore\n        /* \"#utility.yul\":6394:6398   */\n      0x12\n        /* \"#utility.yul\":6391:6392   */\n      0x04\n        /* \"#utility.yul\":6384:6399   */\n      mstore\n        /* \"#utility.yul\":6418:6422   */\n      0x24\n        /* \"#utility.yul\":6415:6416   */\n      0x00\n        /* \"#utility.yul\":6408:6423   */\n      revert\n        /* \"#utility.yul\":6435:6620   */\n    tag_91:\n        /* \"#utility.yul\":6475:6476   */\n      0x00\n        /* \"#utility.yul\":6492:6512   */\n      tag_201\n        /* \"#utility.yul\":6510:6511   */\n      dup3\n        /* \"#utility.yul\":6492:6512   */\n      tag_106\n      jump\t// in\n    tag_201:\n        /* \"#utility.yul\":6487:6512   */\n      swap2\n      pop\n        /* \"#utility.yul\":6526:6546   */\n      tag_202\n        /* \"#utility.yul\":6544:6545   */\n      dup4\n        /* \"#utility.yul\":6526:6546   */\n      tag_106\n      jump\t// in\n    tag_202:\n        /* \"#utility.yul\":6521:6546   */\n      swap3\n      pop\n        /* \"#utility.yul\":6565:6566   */\n      dup3\n        /* \"#utility.yul\":6555:6590   */\n      tag_203\n      jumpi\n        /* \"#utility.yul\":6570:6588   */\n      tag_204\n      tag_125\n      jump\t// in\n    tag_204:\n        /* \"#utility.yul\":6555:6590   */\n    tag_203:\n        /* \"#utility.yul\":6612:6613   */\n      dup3\n        /* \"#utility.yul\":6609:6610   */\n      dup3\n        /* \"#utility.yul\":6605:6614   */\n      div\n        /* \"#utility.yul\":6600:6614   */\n      swap1\n      pop\n        /* \"#utility.yul\":6435:6620   */\n      swap3\n      swap2\n      pop\n      pop\n      jump\t// out\n        /* \"#utility.yul\":6626:6731   */\n    tag_126:\n        /* \"#utility.yul\":6662:6669   */\n      0x00\n        /* \"#utility.yul\":6702:6724   */\n      0xffffffffffffffffffff\n        /* \"#utility.yul\":6695:6700   */\n      dup3\n        /* \"#utility.yul\":6691:6725   */\n      and\n        /* \"#utility.yul\":6680:6725   */\n      swap1\n      pop\n        /* \"#utility.yul\":6626:6731   */\n      swap2\n      swap1\n      pop\n      jump\t// out\n        /* \"#utility.yul\":6737:6857   */\n    tag_127:\n        /* \"#utility.yul\":6809:6832   */\n      tag_207\n        /* \"#utility.yul\":6826:6831   */\n      dup2\n        /* \"#utility.yul\":6809:6832   */\n      tag_126\n      jump\t// in\n    tag_207:\n        /* \"#utility.yul\":6802:6807   */\n      dup2\n        /* \"#utility.yul\":6799:6833   */\n      eq\n        /* \"#utility.yul\":6789:6851   */\n      tag_208\n      jumpi\n        /* \"#utility.yul\":6847:6848   */\n      0x00\n        /* \"#utility.yul\":6844:6845   */\n      dup1\n        /* \"#utility.yul\":6837:6849   */\n      revert\n        /* \"#utility.yul\":6789:6851   */\n    tag_208:\n        /* \"#utility.yul\":6737:6857   */\n      pop\n      jump\t// out\n        /* \"#utility.yul\":6863:7004   */\n    tag_128:\n        /* \"#utility.yul\":6919:6924   */\n      0x00\n        /* \"#utility.yul\":6950:6956   */\n      dup2\n        /* \"#utility.yul\":6944:6957   */\n      mload\n        /* \"#utility.yul\":6935:6957   */\n      swap1\n      pop\n        /* \"#utility.yul\":6966:6998   */\n      tag_210\n        /* \"#utility.yul\":6992:6997   */\n      dup2\n        /* \"#utility.yul\":6966:6998   */\n      tag_127\n      jump\t// in\n    tag_210:\n        /* \"#utility.yul\":6863:7004   */\n      swap3\n      swap2\n      pop\n      pop\n      jump\t// out\n        /* \"#utility.yul\":7010:7086   */\n    tag_129:\n        /* \"#utility.yul\":7046:7053   */\n      0x00\n        /* \"#utility.yul\":7075:7080   */\n      dup2\n        /* \"#utility.yul\":7064:7080   */\n      swap1\n      pop\n        /* \"#utility.yul\":7010:7086   */\n      swap2\n      swap1\n      pop\n      jump\t// out\n        /* \"#utility.yul\":7092:7212   */\n    tag_130:\n        /* \"#utility.yul\":7164:7187   */\n      tag_213\n        /* \"#utility.yul\":7181:7186   */\n      dup2\n        /* \"#utility.yul\":7164:7187   */\n      tag_129\n      jump\t// in\n    tag_213:\n        /* \"#utility.yul\":7157:7162   */\n      dup2\n        /* \"#utility.yul\":7154:7188   */\n      eq\n        /* \"#utility.yul\":7144:7206   */\n      tag_214\n      jumpi\n        /* \"#utility.yul\":7202:7203   */\n      0x00\n        /* \"#utility.yul\":7199:7200   */\n      dup1\n        /* \"#utility.yul\":7192:7204   */\n      revert\n        /* \"#utility.yul\":7144:7206   */\n    tag_214:\n        /* \"#utility.yul\":7092:7212   */\n      pop\n      jump\t// out\n        /* \"#utility.yul\":7218:7359   */\n    tag_131:\n        /* \"#utility.yul\":7274:7279   */\n      0x00\n        /* \"#utility.yul\":7305:7311   */\n      dup2\n        /* \"#utility.yul\":7299:7312   */\n      mload\n        /* \"#utility.yul\":7290:7312   */\n      swap1\n      pop\n        /* \"#utility.yul\":7321:7353   */\n      tag_216\n        /* \"#utility.yul\":7347:7352   */\n      dup2\n        /* \"#utility.yul\":7321:7353   */\n      tag_130\n      jump\t// in\n    tag_216:\n        /* \"#utility.yul\":7218:7359   */\n      swap3\n      swap2\n      pop\n      pop\n      jump\t// out\n        /* \"#utility.yul\":7365:7508   */\n    tag_132:\n        /* \"#utility.yul\":7422:7427   */\n      0x00\n        /* \"#utility.yul\":7453:7459   */\n      dup2\n        /* \"#utility.yul\":7447:7460   */\n      mload\n        /* \"#utility.yul\":7438:7460   */\n      swap1\n      pop\n        /* \"#utility.yul\":7469:7502   */\n      tag_218\n        /* \"#utility.yul\":7496:7501   */\n      dup2\n        /* \"#utility.yul\":7469:7502   */\n      tag_116\n      jump\t// in\n    tag_218:\n        /* \"#utility.yul\":7365:7508   */\n      swap3\n      swap2\n      pop\n      pop\n      jump\t// out\n        /* \"#utility.yul\":7514:8485   */\n    tag_96:\n        /* \"#utility.yul\":7617:7623   */\n      0x00\n        /* \"#utility.yul\":7625:7631   */\n      dup1\n        /* \"#utility.yul\":7633:7639   */\n      0x00\n        /* \"#utility.yul\":7641:7647   */\n      dup1\n        /* \"#utility.yul\":7649:7655   */\n      0x00\n        /* \"#utility.yul\":7698:7701   */\n      0xa0\n        /* \"#utility.yul\":7686:7695   */\n      dup7\n        /* \"#utility.yul\":7677:7684   */\n      dup9\n        /* \"#utility.yul\":7673:7696   */\n      sub\n        /* \"#utility.yul\":7669:7702   */\n      slt\n        /* \"#utility.yul\":7666:7786   */\n      iszero\n      tag_220\n      jumpi\n        /* \"#utility.yul\":7705:7784   */\n      tag_221\n      tag_109\n      jump\t// in\n    tag_221:\n        /* \"#utility.yul\":7666:7786   */\n    tag_220:\n        /* \"#utility.yul\":7825:7826   */\n      0x00\n        /* \"#utility.yul\":7850:7913   */\n      tag_222\n        /* \"#utility.yul\":7905:7912   */\n      dup9\n        /* \"#utility.yul\":7896:7902   */\n      dup3\n        /* \"#utility.yul\":7885:7894   */\n      dup10\n        /* \"#utility.yul\":7881:7903   */\n      add\n        /* \"#utility.yul\":7850:7913   */\n      tag_128\n      jump\t// in\n    tag_222:\n        /* \"#utility.yul\":7840:7913   */\n      swap6\n      pop\n        /* \"#utility.yul\":7796:7923   */\n      pop\n        /* \"#utility.yul\":7962:7964   */\n      0x20\n        /* \"#utility.yul\":7988:8051   */\n      tag_223\n        /* \"#utility.yul\":8043:8050   */\n      dup9\n        /* \"#utility.yul\":8034:8040   */\n      dup3\n        /* \"#utility.yul\":8023:8032   */\n      dup10\n        /* \"#utility.yul\":8019:8041   */\n      add\n        /* \"#utility.yul\":7988:8051   */\n      tag_131\n      jump\t// in\n    tag_223:\n        /* \"#utility.yul\":7978:8051   */\n      swap5\n      pop\n        /* \"#utility.yul\":7933:8061   */\n      pop\n        /* \"#utility.yul\":8100:8102   */\n      0x40\n        /* \"#utility.yul\":8126:8190   */\n      tag_224\n        /* \"#utility.yul\":8182:8189   */\n      dup9\n        /* \"#utility.yul\":8173:8179   */\n      dup3\n        /* \"#utility.yul\":8162:8171   */\n      dup10\n        /* \"#utility.yul\":8158:8180   */\n      add\n        /* \"#utility.yul\":8126:8190   */\n      tag_132\n      jump\t// in\n    tag_224:\n        /* \"#utility.yul\":8116:8190   */\n      swap4\n      pop\n        /* \"#utility.yul\":8071:8200   */\n      pop\n        /* \"#utility.yul\":8239:8241   */\n      0x60\n        /* \"#utility.yul\":8265:8329   */\n      tag_225\n        /* \"#utility.yul\":8321:8328   */\n      dup9\n        /* \"#utility.yul\":8312:8318   */\n      dup3\n        /* \"#utility.yul\":8301:8310   */\n      dup10\n        /* \"#utility.yul\":8297:8319   */\n      add\n        /* \"#utility.yul\":8265:8329   */\n      tag_132\n      jump\t// in\n    tag_225:\n        /* \"#utility.yul\":8255:8329   */\n      swap3\n      pop\n        /* \"#utility.yul\":8210:8339   */\n      pop\n        /* \"#utility.yul\":8378:8381   */\n      0x80\n        /* \"#utility.yul\":8405:8468   */\n      tag_226\n        /* \"#utility.yul\":8460:8467   */\n      dup9\n        /* \"#utility.yul\":8451:8457   */\n      dup3\n        /* \"#utility.yul\":8440:8449   */\n      dup10\n        /* \"#utility.yul\":8436:8458   */\n      add\n        /* \"#utility.yul\":8405:8468   */\n      tag_128\n      jump\t// in\n    tag_226:\n        /* \"#utility.yul\":8395:8468   */\n      swap2\n      pop\n        /* \"#utility.yul\":8349:8478   */\n      pop\n        /* \"#utility.yul\":7514:8485   */\n      swap3\n      swap6\n      pop\n      swap3\n      swap6\n      swap1\n      swap4\n      pop\n      jump\t// out\n        /* \"#utility.yul\":8491:9047   */\n    tag_98:\n        /* \"#utility.yul\":8530:8537   */\n      0x00\n        /* \"#utility.yul\":8553:8572   */\n      tag_228\n        /* \"#utility.yul\":8570:8571   */\n      dup3\n        /* \"#utility.yul\":8553:8572   */\n      tag_129\n      jump\t// in\n    tag_228:\n        /* \"#utility.yul\":8548:8572   */\n      swap2\n      pop\n        /* \"#utility.yul\":8586:8605   */\n      tag_229\n        /* \"#utility.yul\":8603:8604   */\n      dup4\n        /* \"#utility.yul\":8586:8605   */\n      tag_129\n      jump\t// in\n    tag_229:\n        /* \"#utility.yul\":8581:8605   */\n      swap3\n      pop\n        /* \"#utility.yul\":8640:8641   */\n      dup3\n        /* \"#utility.yul\":8637:8638   */\n      dup3\n        /* \"#utility.yul\":8633:8642   */\n      mul\n        /* \"#utility.yul\":8662:8691   */\n      tag_230\n        /* \"#utility.yul\":8679:8690   */\n      dup2\n        /* \"#utility.yul\":8662:8691   */\n      tag_129\n      jump\t// in\n    tag_230:\n        /* \"#utility.yul\":8651:8691   */\n      swap2\n      pop\n        /* \"#utility.yul\":8749:8815   */\n      0x8000000000000000000000000000000000000000000000000000000000000000\n        /* \"#utility.yul\":8746:8747   */\n      dup5\n        /* \"#utility.yul\":8743:8816   */\n      eq\n        /* \"#utility.yul\":8739:8740   */\n      0x00\n        /* \"#utility.yul\":8736:8737   */\n      dup5\n        /* \"#utility.yul\":8732:8741   */\n      slt\n        /* \"#utility.yul\":8728:8817   */\n      and\n        /* \"#utility.yul\":8725:8840   */\n      iszero\n      tag_231\n      jumpi\n        /* \"#utility.yul\":8820:8838   */\n      tag_232\n      tag_121\n      jump\t// in\n    tag_232:\n        /* \"#utility.yul\":8725:8840   */\n    tag_231:\n        /* \"#utility.yul\":8990:8991   */\n      dup3\n        /* \"#utility.yul\":8981:8988   */\n      dup3\n        /* \"#utility.yul\":8976:8992   */\n      sdiv\n        /* \"#utility.yul\":8973:8974   */\n      dup5\n        /* \"#utility.yul\":8970:8993   */\n      eq\n        /* \"#utility.yul\":8950:8951   */\n      dup4\n        /* \"#utility.yul\":8943:8952   */\n      iszero\n        /* \"#utility.yul\":8923:9007   */\n      or\n        /* \"#utility.yul\":8900:9040   */\n      tag_233\n      jumpi\n        /* \"#utility.yul\":9020:9038   */\n      tag_234\n      tag_121\n      jump\t// in\n    tag_234:\n        /* \"#utility.yul\":8900:9040   */\n    tag_233:\n        /* \"#utility.yul\":8538:9047   */\n      pop\n        /* \"#utility.yul\":8491:9047   */\n      swap3\n      swap2\n      pop\n      pop\n      jump\t// out\n\n    auxdata: 0xa2646970667358221220ac01a590f0d55ec405bd33988705800459b275e5954bcb0184d50892eabf66dd64736f6c63430008120033\n}\n",
				"bytecode": {
					"linkReferences": {},
					"object": "60a060405234801561001057600080fd5b503373ffffffffffffffffffffffffffffffffffffffff1660808173ffffffffffffffffffffffffffffffffffffffff1681525050608051610ce16100676000396000818161030e01526105650152610ce16000f3fe6080604052600436106100745760003560e01c806354fd4d501161004e57806354fd4d501461010c578063b60d428814610137578063dba6335f14610141578063dc0d3dff1461016c57610083565b8063213dbea21461008d5780633ccfd60b146100b85780633e47d6f3146100cf57610083565b36610083576100816101a9565b005b61008b6101a9565b005b34801561009957600080fd5b506100a2610300565b6040516100af9190610769565b60405180910390f35b3480156100c457600080fd5b506100cd61030c565b005b3480156100db57600080fd5b506100f660048036038101906100f191906107e7565b610545565b6040516101039190610769565b60405180910390f35b34801561011857600080fd5b5061012161055d565b60405161012e9190610769565b60405180910390f35b61013f6101a9565b005b34801561014d57600080fd5b50610156610563565b6040516101639190610823565b60405180910390f35b34801561017857600080fd5b50610193600480360381019061018e919061086a565b610587565b6040516101a09190610823565b60405180910390f35b674563918244f400006101bb346105c6565b10156101fc576040517f08c379a00000000000000000000000000000000000000000000000000000000081526004016101f39061091a565b60405180910390fd5b674563918244f4000061020e346105c6565b10610245576040517f8ee5415300000000000000000000000000000000000000000000000000000000815260040160405180910390fd5b6001339080600181540180825580915050600190039060005260206000200160009091909190916101000a81548173ffffffffffffffffffffffffffffffffffffffff021916908373ffffffffffffffffffffffffffffffffffffffff16021790555034600260003373ffffffffffffffffffffffffffffffffffffffff1673ffffffffffffffffffffffffffffffffffffffff16815260200190815260200160002060008282546102f79190610969565b92505081905550565b674563918244f4000081565b7f000000000000000000000000000000000000000000000000000000000000000073ffffffffffffffffffffffffffffffffffffffff163373ffffffffffffffffffffffffffffffffffffffff1614610391576040517f30cd747100000000000000000000000000000000000000000000000000000000815260040160405180910390fd5b60005b60018054905081101561043d576000600182815481106103b7576103b661099d565b5b9060005260206000200160009054906101000a900473ffffffffffffffffffffffffffffffffffffffff1690506000600260008373ffffffffffffffffffffffffffffffffffffffff1673ffffffffffffffffffffffffffffffffffffffff16815260200190815260200160002081905550508080610435906109cc565b915050610394565b50600067ffffffffffffffff81111561045957610458610a14565b5b6040519080825280602002602001820160405280156104875781602001602082028036833780820191505090505b506001908051906020019061049d9291906106a9565b5060003373ffffffffffffffffffffffffffffffffffffffff16476040516104c490610a74565b60006040518083038185875af1925050503d8060008114610501576040519150601f19603f3d011682016040523d82523d6000602084013e610506565b606091505b505090508015610542576040517f674ac13200000000000000000000000000000000000000000000000000000000815260040160405180910390fd5b50565b60026020528060005260406000206000915090505481565b60005481565b7f000000000000000000000000000000000000000000000000000000000000000081565b6001818154811061059757600080fd5b906000526020600020016000915054906101000a900473ffffffffffffffffffffffffffffffffffffffff1681565b6000806105d1610600565b90506000670de0b6b3a764000084836105ea9190610a89565b6105f49190610afa565b90508092505050919050565b60008073694aa1769357215de4fac081bf1f309adc325306905060008173ffffffffffffffffffffffffffffffffffffffff1663feaf968c6040518163ffffffff1660e01b815260040160a060405180830381865afa158015610667573d6000803e3d6000fd5b505050506040513d601f19601f8201168201806040525081019061068b9190610bb8565b5050509150506402540be400816106a29190610c33565b9250505090565b828054828255906000526020600020908101928215610722579160200282015b828111156107215782518260006101000a81548173ffffffffffffffffffffffffffffffffffffffff021916908373ffffffffffffffffffffffffffffffffffffffff160217905550916020019190600101906106c9565b5b50905061072f9190610733565b5090565b5b8082111561074c576000816000905550600101610734565b5090565b6000819050919050565b61076381610750565b82525050565b600060208201905061077e600083018461075a565b92915050565b600080fd5b600073ffffffffffffffffffffffffffffffffffffffff82169050919050565b60006107b482610789565b9050919050565b6107c4816107a9565b81146107cf57600080fd5b50565b6000813590506107e1816107bb565b92915050565b6000602082840312156107fd576107fc610784565b5b600061080b848285016107d2565b91505092915050565b61081d816107a9565b82525050565b60006020820190506108386000830184610814565b92915050565b61084781610750565b811461085257600080fd5b50565b6000813590506108648161083e565b92915050565b6000602082840312156108805761087f610784565b5b600061088e84828501610855565b91505092915050565b600082825260208201905092915050565b7f446f6573206e6f74206d65657420746865206d696e696d756d2045544820726560008201527f71756972656d656e740000000000000000000000000000000000000000000000602082015250565b6000610904602983610897565b915061090f826108a8565b604082019050919050565b60006020820190508181036000830152610933816108f7565b9050919050565b7f4e487b7100000000000000000000000000000000000000000000000000000000600052601160045260246000fd5b600061097482610750565b915061097f83610750565b92508282019050808211156109975761099661093a565b5b92915050565b7f4e487b7100000000000000000000000000000000000000000000000000000000600052603260045260246000fd5b60006109d782610750565b91507fffffffffffffffffffffffffffffffffffffffffffffffffffffffffffffffff8203610a0957610a0861093a565b5b600182019050919050565b7f4e487b7100000000000000000000000000000000000000000000000000000000600052604160045260246000fd5b600081905092915050565b50565b6000610a5e600083610a43565b9150610a6982610a4e565b600082019050919050565b6000610a7f82610a51565b9150819050919050565b6000610a9482610750565b9150610a9f83610750565b9250828202610aad81610750565b91508282048414831517610ac457610ac361093a565b5b5092915050565b7f4e487b7100000000000000000000000000000000000000000000000000000000600052601260045260246000fd5b6000610b0582610750565b9150610b1083610750565b925082610b2057610b1f610acb565b5b828204905092915050565b600069ffffffffffffffffffff82169050919050565b610b4a81610b2b565b8114610b5557600080fd5b50565b600081519050610b6781610b41565b92915050565b6000819050919050565b610b8081610b6d565b8114610b8b57600080fd5b50565b600081519050610b9d81610b77565b92915050565b600081519050610bb28161083e565b92915050565b600080600080600060a08688031215610bd457610bd3610784565b5b6000610be288828901610b58565b9550506020610bf388828901610b8e565b9450506040610c0488828901610ba3565b9350506060610c1588828901610ba3565b9250506080610c2688828901610b58565b9150509295509295909350565b6000610c3e82610b6d565b9150610c4983610b6d565b9250828202610c5781610b6d565b91507f80000000000000000000000000000000000000000000000000000000000000008414600084121615610c8f57610c8e61093a565b5b8282058414831517610ca457610ca361093a565b5b509291505056fea2646970667358221220ac01a590f0d55ec405bd33988705800459b275e5954bcb0184d50892eabf66dd64736f6c63430008120033",
					"opcodes": "PUSH1 0xA0 PUSH1 0x40 MSTORE CALLVALUE DUP1 ISZERO PUSH2 0x10 JUMPI PUSH1 0x0 DUP1 REVERT JUMPDEST POP CALLER PUSH20 0xFFFFFFFFFFFFFFFFFFFFFFFFFFFFFFFFFFFFFFFF AND PUSH1 0x80 DUP2 PUSH20 0xFFFFFFFFFFFFFFFFFFFFFFFFFFFFFFFFFFFFFFFF AND DUP2 MSTORE POP POP PUSH1 0x80 MLOAD PUSH2 0xCE1 PUSH2 0x67 PUSH1 0x0 CODECOPY PUSH1 0x0 DUP2 DUP2 PUSH2 0x30E ADD MSTORE PUSH2 0x565 ADD MSTORE PUSH2 0xCE1 PUSH1 0x0 RETURN INVALID PUSH1 0x80 PUSH1 0x40 MSTORE PUSH1 0x4 CALLDATASIZE LT PUSH2 0x74 JUMPI PUSH1 0x0 CALLDATALOAD PUSH1 0xE0 SHR DUP1 PUSH4 0x54FD4D50 GT PUSH2 0x4E JUMPI DUP1 PUSH4 0x54FD4D50 EQ PUSH2 0x10C JUMPI DUP1 PUSH4 0xB60D4288 EQ PUSH2 0x137 JUMPI DUP1 PUSH4 0xDBA6335F EQ PUSH2 0x141 JUMPI DUP1 PUSH4 0xDC0D3DFF EQ PUSH2 0x16C JUMPI PUSH2 0x83 JUMP JUMPDEST DUP1 PUSH4 0x213DBEA2 EQ PUSH2 0x8D JUMPI DUP1 PUSH4 0x3CCFD60B EQ PUSH2 0xB8 JUMPI DUP1 PUSH4 0x3E47D6F3 EQ PUSH2 0xCF JUMPI PUSH2 0x83 JUMP JUMPDEST CALLDATASIZE PUSH2 0x83 JUMPI PUSH2 0x81 PUSH2 0x1A9 JUMP JUMPDEST STOP JUMPDEST PUSH2 0x8B PUSH2 0x1A9 JUMP JUMPDEST STOP JUMPDEST CALLVALUE DUP1 ISZERO PUSH2 0x99 JUMPI PUSH1 0x0 DUP1 REVERT JUMPDEST POP PUSH2 0xA2 PUSH2 0x300 JUMP JUMPDEST PUSH1 0x40 MLOAD PUSH2 0xAF SWAP2 SWAP1 PUSH2 0x769 JUMP JUMPDEST PUSH1 0x40 MLOAD DUP1 SWAP2 SUB SWAP1 RETURN JUMPDEST CALLVALUE DUP1 ISZERO PUSH2 0xC4 JUMPI PUSH1 0x0 DUP1 REVERT JUMPDEST POP PUSH2 0xCD PUSH2 0x30C JUMP JUMPDEST STOP JUMPDEST CALLVALUE DUP1 ISZERO PUSH2 0xDB JUMPI PUSH1 0x0 DUP1 REVERT JUMPDEST POP PUSH2 0xF6 PUSH1 0x4 DUP1 CALLDATASIZE SUB DUP2 ADD SWAP1 PUSH2 0xF1 SWAP2 SWAP1 PUSH2 0x7E7 JUMP JUMPDEST PUSH2 0x545 JUMP JUMPDEST PUSH1 0x40 MLOAD PUSH2 0x103 SWAP2 SWAP1 PUSH2 0x769 JUMP JUMPDEST PUSH1 0x40 MLOAD DUP1 SWAP2 SUB SWAP1 RETURN JUMPDEST CALLVALUE DUP1 ISZERO PUSH2 0x118 JUMPI PUSH1 0x0 DUP1 REVERT JUMPDEST POP PUSH2 0x121 PUSH2 0x55D JUMP JUMPDEST PUSH1 0x40 MLOAD PUSH2 0x12E SWAP2 SWAP1 PUSH2 0x769 JUMP JUMPDEST PUSH1 0x40 MLOAD DUP1 SWAP2 SUB SWAP1 RETURN JUMPDEST PUSH2 0x13F PUSH2 0x1A9 JUMP JUMPDEST STOP JUMPDEST CALLVALUE DUP1 ISZERO PUSH2 0x14D JUMPI PUSH1 0x0 DUP1 REVERT JUMPDEST POP PUSH2 0x156 PUSH2 0x563 JUMP JUMPDEST PUSH1 0x40 MLOAD PUSH2 0x163 SWAP2 SWAP1 PUSH2 0x823 JUMP JUMPDEST PUSH1 0x40 MLOAD DUP1 SWAP2 SUB SWAP1 RETURN JUMPDEST CALLVALUE DUP1 ISZERO PUSH2 0x178 JUMPI PUSH1 0x0 DUP1 REVERT JUMPDEST POP PUSH2 0x193 PUSH1 0x4 DUP1 CALLDATASIZE SUB DUP2 ADD SWAP1 PUSH2 0x18E SWAP2 SWAP1 PUSH2 0x86A JUMP JUMPDEST PUSH2 0x587 JUMP JUMPDEST PUSH1 0x40 MLOAD PUSH2 0x1A0 SWAP2 SWAP1 PUSH2 0x823 JUMP JUMPDEST PUSH1 0x40 MLOAD DUP1 SWAP2 SUB SWAP1 RETURN JUMPDEST PUSH8 0x4563918244F40000 PUSH2 0x1BB CALLVALUE PUSH2 0x5C6 JUMP JUMPDEST LT ISZERO PUSH2 0x1FC JUMPI PUSH1 0x40 MLOAD PUSH32 0x8C379A000000000000000000000000000000000000000000000000000000000 DUP2 MSTORE PUSH1 0x4 ADD PUSH2 0x1F3 SWAP1 PUSH2 0x91A JUMP JUMPDEST PUSH1 0x40 MLOAD DUP1 SWAP2 SUB SWAP1 REVERT JUMPDEST PUSH8 0x4563918244F40000 PUSH2 0x20E CALLVALUE PUSH2 0x5C6 JUMP JUMPDEST LT PUSH2 0x245 JUMPI PUSH1 0x40 MLOAD PUSH32 0x8EE5415300000000000000000000000000000000000000000000000000000000 DUP2 MSTORE PUSH1 0x4 ADD PUSH1 0x40 MLOAD DUP1 SWAP2 SUB SWAP1 REVERT JUMPDEST PUSH1 0x1 CALLER SWAP1 DUP1 PUSH1 0x1 DUP2 SLOAD ADD DUP1 DUP3 SSTORE DUP1 SWAP2 POP POP PUSH1 0x1 SWAP1 SUB SWAP1 PUSH1 0x0 MSTORE PUSH1 0x20 PUSH1 0x0 KECCAK256 ADD PUSH1 0x0 SWAP1 SWAP2 SWAP1 SWAP2 SWAP1 SWAP2 PUSH2 0x100 EXP DUP2 SLOAD DUP2 PUSH20 0xFFFFFFFFFFFFFFFFFFFFFFFFFFFFFFFFFFFFFFFF MUL NOT AND SWAP1 DUP4 PUSH20 0xFFFFFFFFFFFFFFFFFFFFFFFFFFFFFFFFFFFFFFFF AND MUL OR SWAP1 SSTORE POP CALLVALUE PUSH1 0x2 PUSH1 0x0 CALLER PUSH20 0xFFFFFFFFFFFFFFFFFFFFFFFFFFFFFFFFFFFFFFFF AND PUSH20 0xFFFFFFFFFFFFFFFFFFFFFFFFFFFFFFFFFFFFFFFF AND DUP2 MSTORE PUSH1 0x20 ADD SWAP1 DUP2 MSTORE PUSH1 0x20 ADD PUSH1 0x0 KECCAK256 PUSH1 0x0 DUP3 DUP3 SLOAD PUSH2 0x2F7 SWAP2 SWAP1 PUSH2 0x969 JUMP JUMPDEST SWAP3 POP POP DUP2 SWAP1 SSTORE POP JUMP JUMPDEST PUSH8 0x4563918244F40000 DUP2 JUMP JUMPDEST PUSH32 0x0 PUSH20 0xFFFFFFFFFFFFFFFFFFFFFFFFFFFFFFFFFFFFFFFF AND CALLER PUSH20 0xFFFFFFFFFFFFFFFFFFFFFFFFFFFFFFFFFFFFFFFF AND EQ PUSH2 0x391 JUMPI PUSH1 0x40 MLOAD PUSH32 0x30CD747100000000000000000000000000000000000000000000000000000000 DUP2 MSTORE PUSH1 0x4 ADD PUSH1 0x40 MLOAD DUP1 SWAP2 SUB SWAP1 REVERT JUMPDEST PUSH1 0x0 JUMPDEST PUSH1 0x1 DUP1 SLOAD SWAP1 POP DUP2 LT ISZERO PUSH2 0x43D JUMPI PUSH1 0x0 PUSH1 0x1 DUP3 DUP2 SLOAD DUP2 LT PUSH2 0x3B7 JUMPI PUSH2 0x3B6 PUSH2 0x99D JUMP JUMPDEST JUMPDEST SWAP1 PUSH1 0x0 MSTORE PUSH1 0x20 PUSH1 0x0 KECCAK256 ADD PUSH1 0x0 SWAP1 SLOAD SWAP1 PUSH2 0x100 EXP SWAP1 DIV PUSH20 0xFFFFFFFFFFFFFFFFFFFFFFFFFFFFFFFFFFFFFFFF AND SWAP1 POP PUSH1 0x0 PUSH1 0x2 PUSH1 0x0 DUP4 PUSH20 0xFFFFFFFFFFFFFFFFFFFFFFFFFFFFFFFFFFFFFFFF AND PUSH20 0xFFFFFFFFFFFFFFFFFFFFFFFFFFFFFFFFFFFFFFFF AND DUP2 MSTORE PUSH1 0x20 ADD SWAP1 DUP2 MSTORE PUSH1 0x20 ADD PUSH1 0x0 KECCAK256 DUP2 SWAP1 SSTORE POP POP DUP1 DUP1 PUSH2 0x435 SWAP1 PUSH2 0x9CC JUMP JUMPDEST SWAP2 POP POP PUSH2 0x394 JUMP JUMPDEST POP PUSH1 0x0 PUSH8 0xFFFFFFFFFFFFFFFF DUP2 GT ISZERO PUSH2 0x459 JUMPI PUSH2 0x458 PUSH2 0xA14 JUMP JUMPDEST JUMPDEST PUSH1 0x40 MLOAD SWAP1 DUP1 DUP3 MSTORE DUP1 PUSH1 0x20 MUL PUSH1 0x20 ADD DUP3 ADD PUSH1 0x40 MSTORE DUP1 ISZERO PUSH2 0x487 JUMPI DUP2 PUSH1 0x20 ADD PUSH1 0x20 DUP3 MUL DUP1 CALLDATASIZE DUP4 CALLDATACOPY DUP1 DUP3 ADD SWAP2 POP POP SWAP1 POP JUMPDEST POP PUSH1 0x1 SWAP1 DUP1 MLOAD SWAP1 PUSH1 0x20 ADD SWAP1 PUSH2 0x49D SWAP3 SWAP2 SWAP1 PUSH2 0x6A9 JUMP JUMPDEST POP PUSH1 0x0 CALLER PUSH20 0xFFFFFFFFFFFFFFFFFFFFFFFFFFFFFFFFFFFFFFFF AND SELFBALANCE PUSH1 0x40 MLOAD PUSH2 0x4C4 SWAP1 PUSH2 0xA74 JUMP JUMPDEST PUSH1 0x0 PUSH1 0x40 MLOAD DUP1 DUP4 SUB DUP2 DUP6 DUP8 GAS CALL SWAP3 POP POP POP RETURNDATASIZE DUP1 PUSH1 0x0 DUP2 EQ PUSH2 0x501 JUMPI PUSH1 0x40 MLOAD SWAP2 POP PUSH1 0x1F NOT PUSH1 0x3F RETURNDATASIZE ADD AND DUP3 ADD PUSH1 0x40 MSTORE RETURNDATASIZE DUP3 MSTORE RETURNDATASIZE PUSH1 0x0 PUSH1 0x20 DUP5 ADD RETURNDATACOPY PUSH2 0x506 JUMP JUMPDEST PUSH1 0x60 SWAP2 POP JUMPDEST POP POP SWAP1 POP DUP1 ISZERO PUSH2 0x542 JUMPI PUSH1 0x40 MLOAD PUSH32 0x674AC13200000000000000000000000000000000000000000000000000000000 DUP2 MSTORE PUSH1 0x4 ADD PUSH1 0x40 MLOAD DUP1 SWAP2 SUB SWAP1 REVERT JUMPDEST POP JUMP JUMPDEST PUSH1 0x2 PUSH1 0x20 MSTORE DUP1 PUSH1 0x0 MSTORE PUSH1 0x40 PUSH1 0x0 KECCAK256 PUSH1 0x0 SWAP2 POP SWAP1 POP SLOAD DUP2 JUMP JUMPDEST PUSH1 0x0 SLOAD DUP2 JUMP JUMPDEST PUSH32 0x0 DUP2 JUMP JUMPDEST PUSH1 0x1 DUP2 DUP2 SLOAD DUP2 LT PUSH2 0x597 JUMPI PUSH1 0x0 DUP1 REVERT JUMPDEST SWAP1 PUSH1 0x0 MSTORE PUSH1 0x20 PUSH1 0x0 KECCAK256 ADD PUSH1 0x0 SWAP2 POP SLOAD SWAP1 PUSH2 0x100 EXP SWAP1 DIV PUSH20 0xFFFFFFFFFFFFFFFFFFFFFFFFFFFFFFFFFFFFFFFF AND DUP2 JUMP JUMPDEST PUSH1 0x0 DUP1 PUSH2 0x5D1 PUSH2 0x600 JUMP JUMPDEST SWAP1 POP PUSH1 0x0 PUSH8 0xDE0B6B3A7640000 DUP5 DUP4 PUSH2 0x5EA SWAP2 SWAP1 PUSH2 0xA89 JUMP JUMPDEST PUSH2 0x5F4 SWAP2 SWAP1 PUSH2 0xAFA JUMP JUMPDEST SWAP1 POP DUP1 SWAP3 POP POP POP SWAP2 SWAP1 POP JUMP JUMPDEST PUSH1 0x0 DUP1 PUSH20 0x694AA1769357215DE4FAC081BF1F309ADC325306 SWAP1 POP PUSH1 0x0 DUP2 PUSH20 0xFFFFFFFFFFFFFFFFFFFFFFFFFFFFFFFFFFFFFFFF AND PUSH4 0xFEAF968C PUSH1 0x40 MLOAD DUP2 PUSH4 0xFFFFFFFF AND PUSH1 0xE0 SHL DUP2 MSTORE PUSH1 0x4 ADD PUSH1 0xA0 PUSH1 0x40 MLOAD DUP1 DUP4 SUB DUP2 DUP7 GAS STATICCALL ISZERO DUP1 ISZERO PUSH2 0x667 JUMPI RETURNDATASIZE PUSH1 0x0 DUP1 RETURNDATACOPY RETURNDATASIZE PUSH1 0x0 REVERT JUMPDEST POP POP POP POP PUSH1 0x40 MLOAD RETURNDATASIZE PUSH1 0x1F NOT PUSH1 0x1F DUP3 ADD AND DUP3 ADD DUP1 PUSH1 0x40 MSTORE POP DUP2 ADD SWAP1 PUSH2 0x68B SWAP2 SWAP1 PUSH2 0xBB8 JUMP JUMPDEST POP POP POP SWAP2 POP POP PUSH5 0x2540BE400 DUP2 PUSH2 0x6A2 SWAP2 SWAP1 PUSH2 0xC33 JUMP JUMPDEST SWAP3 POP POP POP SWAP1 JUMP JUMPDEST DUP3 DUP1 SLOAD DUP3 DUP3 SSTORE SWAP1 PUSH1 0x0 MSTORE PUSH1 0x20 PUSH1 0x0 KECCAK256 SWAP1 DUP2 ADD SWAP3 DUP3 ISZERO PUSH2 0x722 JUMPI SWAP2 PUSH1 0x20 MUL DUP3 ADD JUMPDEST DUP3 DUP2 GT ISZERO PUSH2 0x721 JUMPI DUP3 MLOAD DUP3 PUSH1 0x0 PUSH2 0x100 EXP DUP2 SLOAD DUP2 PUSH20 0xFFFFFFFFFFFFFFFFFFFFFFFFFFFFFFFFFFFFFFFF MUL NOT AND SWAP1 DUP4 PUSH20 0xFFFFFFFFFFFFFFFFFFFFFFFFFFFFFFFFFFFFFFFF AND MUL OR SWAP1 SSTORE POP SWAP2 PUSH1 0x20 ADD SWAP2 SWAP1 PUSH1 0x1 ADD SWAP1 PUSH2 0x6C9 JUMP JUMPDEST JUMPDEST POP SWAP1 POP PUSH2 0x72F SWAP2 SWAP1 PUSH2 0x733 JUMP JUMPDEST POP SWAP1 JUMP JUMPDEST JUMPDEST DUP1 DUP3 GT ISZERO PUSH2 0x74C JUMPI PUSH1 0x0 DUP2 PUSH1 0x0 SWAP1 SSTORE POP PUSH1 0x1 ADD PUSH2 0x734 JUMP JUMPDEST POP SWAP1 JUMP JUMPDEST PUSH1 0x0 DUP2 SWAP1 POP SWAP2 SWAP1 POP JUMP JUMPDEST PUSH2 0x763 DUP2 PUSH2 0x750 JUMP JUMPDEST DUP3 MSTORE POP POP JUMP JUMPDEST PUSH1 0x0 PUSH1 0x20 DUP3 ADD SWAP1 POP PUSH2 0x77E PUSH1 0x0 DUP4 ADD DUP5 PUSH2 0x75A JUMP JUMPDEST SWAP3 SWAP2 POP POP JUMP JUMPDEST PUSH1 0x0 DUP1 REVERT JUMPDEST PUSH1 0x0 PUSH20 0xFFFFFFFFFFFFFFFFFFFFFFFFFFFFFFFFFFFFFFFF DUP3 AND SWAP1 POP SWAP2 SWAP1 POP JUMP JUMPDEST PUSH1 0x0 PUSH2 0x7B4 DUP3 PUSH2 0x789 JUMP JUMPDEST SWAP1 POP SWAP2 SWAP1 POP JUMP JUMPDEST PUSH2 0x7C4 DUP2 PUSH2 0x7A9 JUMP JUMPDEST DUP2 EQ PUSH2 0x7CF JUMPI PUSH1 0x0 DUP1 REVERT JUMPDEST POP JUMP JUMPDEST PUSH1 0x0 DUP2 CALLDATALOAD SWAP1 POP PUSH2 0x7E1 DUP2 PUSH2 0x7BB JUMP JUMPDEST SWAP3 SWAP2 POP POP JUMP JUMPDEST PUSH1 0x0 PUSH1 0x20 DUP3 DUP5 SUB SLT ISZERO PUSH2 0x7FD JUMPI PUSH2 0x7FC PUSH2 0x784 JUMP JUMPDEST JUMPDEST PUSH1 0x0 PUSH2 0x80B DUP5 DUP3 DUP6 ADD PUSH2 0x7D2 JUMP JUMPDEST SWAP2 POP POP SWAP3 SWAP2 POP POP JUMP JUMPDEST PUSH2 0x81D DUP2 PUSH2 0x7A9 JUMP JUMPDEST DUP3 MSTORE POP POP JUMP JUMPDEST PUSH1 0x0 PUSH1 0x20 DUP3 ADD SWAP1 POP PUSH2 0x838 PUSH1 0x0 DUP4 ADD DUP5 PUSH2 0x814 JUMP JUMPDEST SWAP3 SWAP2 POP POP JUMP JUMPDEST PUSH2 0x847 DUP2 PUSH2 0x750 JUMP JUMPDEST DUP2 EQ PUSH2 0x852 JUMPI PUSH1 0x0 DUP1 REVERT JUMPDEST POP JUMP JUMPDEST PUSH1 0x0 DUP2 CALLDATALOAD SWAP1 POP PUSH2 0x864 DUP2 PUSH2 0x83E JUMP JUMPDEST SWAP3 SWAP2 POP POP JUMP JUMPDEST PUSH1 0x0 PUSH1 0x20 DUP3 DUP5 SUB SLT ISZERO PUSH2 0x880 JUMPI PUSH2 0x87F PUSH2 0x784 JUMP JUMPDEST JUMPDEST PUSH1 0x0 PUSH2 0x88E DUP5 DUP3 DUP6 ADD PUSH2 0x855 JUMP JUMPDEST SWAP2 POP POP SWAP3 SWAP2 POP POP JUMP JUMPDEST PUSH1 0x0 DUP3 DUP3 MSTORE PUSH1 0x20 DUP3 ADD SWAP1 POP SWAP3 SWAP2 POP POP JUMP JUMPDEST PUSH32 0x446F6573206E6F74206D65657420746865206D696E696D756D20455448207265 PUSH1 0x0 DUP3 ADD MSTORE PUSH32 0x71756972656D656E740000000000000000000000000000000000000000000000 PUSH1 0x20 DUP3 ADD MSTORE POP JUMP JUMPDEST PUSH1 0x0 PUSH2 0x904 PUSH1 0x29 DUP4 PUSH2 0x897 JUMP JUMPDEST SWAP2 POP PUSH2 0x90F DUP3 PUSH2 0x8A8 JUMP JUMPDEST PUSH1 0x40 DUP3 ADD SWAP1 POP SWAP2 SWAP1 POP JUMP JUMPDEST PUSH1 0x0 PUSH1 0x20 DUP3 ADD SWAP1 POP DUP2 DUP2 SUB PUSH1 0x0 DUP4 ADD MSTORE PUSH2 0x933 DUP2 PUSH2 0x8F7 JUMP JUMPDEST SWAP1 POP SWAP2 SWAP1 POP JUMP JUMPDEST PUSH32 0x4E487B7100000000000000000000000000000000000000000000000000000000 PUSH1 0x0 MSTORE PUSH1 0x11 PUSH1 0x4 MSTORE PUSH1 0x24 PUSH1 0x0 REVERT JUMPDEST PUSH1 0x0 PUSH2 0x974 DUP3 PUSH2 0x750 JUMP JUMPDEST SWAP2 POP PUSH2 0x97F DUP4 PUSH2 0x750 JUMP JUMPDEST SWAP3 POP DUP3 DUP3 ADD SWAP1 POP DUP1 DUP3 GT ISZERO PUSH2 0x997 JUMPI PUSH2 0x996 PUSH2 0x93A JUMP JUMPDEST JUMPDEST SWAP3 SWAP2 POP POP JUMP JUMPDEST PUSH32 0x4E487B7100000000000000000000000000000000000000000000000000000000 PUSH1 0x0 MSTORE PUSH1 0x32 PUSH1 0x4 MSTORE PUSH1 0x24 PUSH1 0x0 REVERT JUMPDEST PUSH1 0x0 PUSH2 0x9D7 DUP3 PUSH2 0x750 JUMP JUMPDEST SWAP2 POP PUSH32 0xFFFFFFFFFFFFFFFFFFFFFFFFFFFFFFFFFFFFFFFFFFFFFFFFFFFFFFFFFFFFFFFF DUP3 SUB PUSH2 0xA09 JUMPI PUSH2 0xA08 PUSH2 0x93A JUMP JUMPDEST JUMPDEST PUSH1 0x1 DUP3 ADD SWAP1 POP SWAP2 SWAP1 POP JUMP JUMPDEST PUSH32 0x4E487B7100000000000000000000000000000000000000000000000000000000 PUSH1 0x0 MSTORE PUSH1 0x41 PUSH1 0x4 MSTORE PUSH1 0x24 PUSH1 0x0 REVERT JUMPDEST PUSH1 0x0 DUP2 SWAP1 POP SWAP3 SWAP2 POP POP JUMP JUMPDEST POP JUMP JUMPDEST PUSH1 0x0 PUSH2 0xA5E PUSH1 0x0 DUP4 PUSH2 0xA43 JUMP JUMPDEST SWAP2 POP PUSH2 0xA69 DUP3 PUSH2 0xA4E JUMP JUMPDEST PUSH1 0x0 DUP3 ADD SWAP1 POP SWAP2 SWAP1 POP JUMP JUMPDEST PUSH1 0x0 PUSH2 0xA7F DUP3 PUSH2 0xA51 JUMP JUMPDEST SWAP2 POP DUP2 SWAP1 POP SWAP2 SWAP1 POP JUMP JUMPDEST PUSH1 0x0 PUSH2 0xA94 DUP3 PUSH2 0x750 JUMP JUMPDEST SWAP2 POP PUSH2 0xA9F DUP4 PUSH2 0x750 JUMP JUMPDEST SWAP3 POP DUP3 DUP3 MUL PUSH2 0xAAD DUP2 PUSH2 0x750 JUMP JUMPDEST SWAP2 POP DUP3 DUP3 DIV DUP5 EQ DUP4 ISZERO OR PUSH2 0xAC4 JUMPI PUSH2 0xAC3 PUSH2 0x93A JUMP JUMPDEST JUMPDEST POP SWAP3 SWAP2 POP POP JUMP JUMPDEST PUSH32 0x4E487B7100000000000000000000000000000000000000000000000000000000 PUSH1 0x0 MSTORE PUSH1 0x12 PUSH1 0x4 MSTORE PUSH1 0x24 PUSH1 0x0 REVERT JUMPDEST PUSH1 0x0 PUSH2 0xB05 DUP3 PUSH2 0x750 JUMP JUMPDEST SWAP2 POP PUSH2 0xB10 DUP4 PUSH2 0x750 JUMP JUMPDEST SWAP3 POP DUP3 PUSH2 0xB20 JUMPI PUSH2 0xB1F PUSH2 0xACB JUMP JUMPDEST JUMPDEST DUP3 DUP3 DIV SWAP1 POP SWAP3 SWAP2 POP POP JUMP JUMPDEST PUSH1 0x0 PUSH10 0xFFFFFFFFFFFFFFFFFFFF DUP3 AND SWAP1 POP SWAP2 SWAP1 POP JUMP JUMPDEST PUSH2 0xB4A DUP2 PUSH2 0xB2B JUMP JUMPDEST DUP2 EQ PUSH2 0xB55 JUMPI PUSH1 0x0 DUP1 REVERT JUMPDEST POP JUMP JUMPDEST PUSH1 0x0 DUP2 MLOAD SWAP1 POP PUSH2 0xB67 DUP2 PUSH2 0xB41 JUMP JUMPDEST SWAP3 SWAP2 POP POP JUMP JUMPDEST PUSH1 0x0 DUP2 SWAP1 POP SWAP2 SWAP1 POP JUMP JUMPDEST PUSH2 0xB80 DUP2 PUSH2 0xB6D JUMP JUMPDEST DUP2 EQ PUSH2 0xB8B JUMPI PUSH1 0x0 DUP1 REVERT JUMPDEST POP JUMP JUMPDEST PUSH1 0x0 DUP2 MLOAD SWAP1 POP PUSH2 0xB9D DUP2 PUSH2 0xB77 JUMP JUMPDEST SWAP3 SWAP2 POP POP JUMP JUMPDEST PUSH1 0x0 DUP2 MLOAD SWAP1 POP PUSH2 0xBB2 DUP2 PUSH2 0x83E JUMP JUMPDEST SWAP3 SWAP2 POP POP JUMP JUMPDEST PUSH1 0x0 DUP1 PUSH1 0x0 DUP1 PUSH1 0x0 PUSH1 0xA0 DUP7 DUP9 SUB SLT ISZERO PUSH2 0xBD4 JUMPI PUSH2 0xBD3 PUSH2 0x784 JUMP JUMPDEST JUMPDEST PUSH1 0x0 PUSH2 0xBE2 DUP9 DUP3 DUP10 ADD PUSH2 0xB58 JUMP JUMPDEST SWAP6 POP POP PUSH1 0x20 PUSH2 0xBF3 DUP9 DUP3 DUP10 ADD PUSH2 0xB8E JUMP JUMPDEST SWAP5 POP POP PUSH1 0x40 PUSH2 0xC04 DUP9 DUP3 DUP10 ADD PUSH2 0xBA3 JUMP JUMPDEST SWAP4 POP POP PUSH1 0x60 PUSH2 0xC15 DUP9 DUP3 DUP10 ADD PUSH2 0xBA3 JUMP JUMPDEST SWAP3 POP POP PUSH1 0x80 PUSH2 0xC26 DUP9 DUP3 DUP10 ADD PUSH2 0xB58 JUMP JUMPDEST SWAP2 POP POP SWAP3 SWAP6 POP SWAP3 SWAP6 SWAP1 SWAP4 POP JUMP JUMPDEST PUSH1 0x0 PUSH2 0xC3E DUP3 PUSH2 0xB6D JUMP JUMPDEST SWAP2 POP PUSH2 0xC49 DUP4 PUSH2 0xB6D JUMP JUMPDEST SWAP3 POP DUP3 DUP3 MUL PUSH2 0xC57 DUP2 PUSH2 0xB6D JUMP JUMPDEST SWAP2 POP PUSH32 0x8000000000000000000000000000000000000000000000000000000000000000 DUP5 EQ PUSH1 0x0 DUP5 SLT AND ISZERO PUSH2 0xC8F JUMPI PUSH2 0xC8E PUSH2 0x93A JUMP JUMPDEST JUMPDEST DUP3 DUP3 SDIV DUP5 EQ DUP4 ISZERO OR PUSH2 0xCA4 JUMPI PUSH2 0xCA3 PUSH2 0x93A JUMP JUMPDEST JUMPDEST POP SWAP3 SWAP2 POP POP JUMP INVALID LOG2 PUSH5 0x6970667358 0x22 SLT KECCAK256 0xAC ADD 0xA5 SWAP1 CREATE 0xD5 0x5E 0xC4 SDIV 0xBD CALLER SWAP9 DUP8 SDIV DUP1 DIV MSIZE 0xB2 PUSH22 0xE5954BCB0184D50892EABF66DD64736F6C6343000812 STOP CALLER "
				},
				"gasEstimates": {
					"creation": {
						"codeDepositCost": "659400",
						"executionCost": "infinite",
						"totalCost": "infinite"
					},
					"external": {
						"": "infinite",
						"MIN_USD()": "330",
						"addressToAmountFunded(address)": "2859",
						"fund()": "infinite",
						"funders(uint256)": "5022",
						"i_owner()": "infinite",
						"version()": "2429",
						"withdraw()": "infinite"
					}
				},
				"methodIdentifiers": {
					"MIN_USD()": "213dbea2",
					"addressToAmountFunded(address)": "3e47d6f3",
					"fund()": "b60d4288",
					"funders(uint256)": "dc0d3dff",
					"i_owner()": "dba6335f",
					"version()": "54fd4d50",
					"withdraw()": "3ccfd60b"
				}
			},
			"storageLayout": {
				"storage": [
					{
						"astId": 65,
						"contract": "FundMe.sol:FundMe",
						"label": "version",
						"offset": 0,
						"slot": "0",
						"type": "t_uint256"
					},
					{
						"astId": 68,
						"contract": "FundMe.sol:FundMe",
						"label": "funders",
						"offset": 0,
						"slot": "1",
						"type": "t_array(t_address)dyn_storage"
					},
					{
						"astId": 72,
						"contract": "FundMe.sol:FundMe",
						"label": "addressToAmountFunded",
						"offset": 0,
						"slot": "2",
						"type": "t_mapping(t_address,t_uint256)"
					}
				],
				"types": {
					"t_address": {
						"encoding": "inplace",
						"label": "address",
						"numberOfBytes": "20"
					},
					"t_array(t_address)dyn_storage": {
						"base": "t_address",
						"encoding": "dynamic_array",
						"label": "address[]",
						"numberOfBytes": "32"
					},
					"t_mapping(t_address,t_uint256)": {
						"encoding": "mapping",
						"key": "t_address",
						"label": "mapping(address => uint256)",
						"numberOfBytes": "32",
						"value": "t_uint256"
					},
					"t_uint256": {
						"encoding": "inplace",
						"label": "uint256",
						"numberOfBytes": "32"
					}
				}
			},
			"userdoc": {
				"kind": "user",
				"methods": {},
				"version": 1
			}
		}
	}
}